:10000000200A0020B11D000083630000851D000050
:10001000851D0000851D0000851D000000000000FA
:10002000000000000000000000000000E91A0000CD
:10003000851D000000000000A11A0000851D0000C1
:10004000651B0000651B0000651B0000651B0000B0
:10005000651B0000651B0000651B0000651B0000A0
:10006000651B0000651B0000651B0000651B000090
:10007000651B0000651B0000651B0000651B000080
:10008000651B0000651B0000651B0000651B000070
:10009000651B0000651B0000651B0000651B000060
:1000A000651B0000651B0000651B0000651B000050
:1000B000651B0000651B0000651B0000651B000040
:1000C000651B0000651B0000651B0000651B000030
:1000D000651B0000651B0000651B0000651B000020
:1000E000651B0000651B0000651B0000651B000010
:1000F000651B0000651B0000651B0000651B000000
:100100007BB972B90029BEBF00204FF0004106E064
:1001100008BF00281CBF6FF000414FF0FF3000F017
:1001200057B8ADF1080C6DE904CE002909DB002BAE
:100130001ADB00F04FF8DDF804E0DDE9022304B03B
:100140007047404261EB4101002B1BDB00F042F89D
:10015000DDF804E0DDE9022304B0404261EB410137
:10016000524263EB43037047524263EB430300F098
:1001700031F8DDF804E0DDE9022304B0404261EB30
:1001800041017047524263EB430300F023F8DDF86E
:1001900004E0DDE9022304B0524263EB43037047FD
:1001A00053B94AB9002908BF00281CBF4FF0FF31DE
:1001B0004FF0FF3000F00CB8ADF1080C6DE904CE43
:1001C00000F008F8DDF804E0DDE9022304B0704730
:1001D000704700BF2DE9F04F07468C460846099E40
:1001E00015463C461946002B40F0C6808242B2FAC2
:1001F00082F746D94FB1C7F1200E24FA0EFE00FA5D
:1002000007F3BD404EEA030CBC404FEA15481FFA05
:1002100085FEBCFBF8F9220C08FB19C309FB0EFA9A
:1002200042EA03439A4528D9EB1809F1FF3004D27A
:100230009A4502D9A9F102002B44A3EB0A03A4B208
:10024000B3FBF8F208FB123302FB0EFE44EA034450
:10025000A64514D92C1902F1FF3303D2A64501D9C2
:10026000931E2C44A4EB0E0443EA00401EB1FC4054
:10027000002334607360BDE8F08F4846DDE7134625
:10028000F0E702B9FFDE87BB831A01214FEA154E62
:10029000AAB2B3FBFEFC200C0EFB1C330CFB02F8D5
:1002A00040EA0343984563D9EB180CF1FF3004D2C0
:1002B000984502D9ACF102002B44A3EB0803A4B289
:1002C000B3FBFEFC0EFB1C330CFB02F244EA0344BE
:1002D000A2424FD92C190CF1FF3304D2A24202D909
:1002E000ACF102032C44A41ABEE7C7F1200C20FA9B
:1002F0000CF800FA07F324FA0CFCBD404CEA0302A8
:100300004FEA154EABB2B8FBFEFC110C0EFB1C8085
:100310000CFB03F941EA0040814504FA07F423D9B4
:1003200028180CF1FF3104D2814502D9ACF1020149
:100330002844A0EB090092B2B0FBFEFC0EFB1C00AF
:100340000CFB03F842EA004398450FD9EB180CF177
:10035000FF3204D2984502D9ACF102022B44A3EB40
:10036000080342EA014191E76146E2E76246F6E7A7
:100370006046A2E76346B6E7834205D90EB1C6E9F7
:1003800000700021084676E7B3FA83F181B9834211
:1003900001D3BA420AD8BC1A60EB030301209C4681
:1003A000002E68D0C6E9004C002164E70846F7E754
:1003B000C1F1200C8B4022FA0CF41C4302FA01F527
:1003C00000FA01F327FA0CF220FA0CFB4FEA144969
:1003D0001343BBFBF9F81FFA84FE09FB18BB1A0C88
:1003E00008FB0EFA42EA0B42924507FA01F73ED9A2
:1003F000A21808F1FF3004D2924502D9A8F10200F8
:100400002244A2EB0A029BB2B2FBF9F809FB1822C4
:1004100008FB0EFE43EA024296452AD9A21808F1CB
:10042000FF3304D2964502D9A8F10203224443EADD
:100430000040A0FB0593A2EB0E029A42CE469846DE
:1004400002D306D14F4504D2B9EB050E63EB040885
:10045000013886B1B7EB0E0362EB080707FA0CFC14
:10046000CB404CEA0303CF40C6E900379CE7404647
:10047000C7E74346DBE73146FDE600000000000029
:10048000032973B5144605461A465DD8002C3CD0A6
:10049000072C59D15B681068374AD917C0FB023165
:1004A000012B71F1000222DB3448181830A3D3E984
:1004B000002341F10001FFF723FE80B202281ED085
:1004C00004281ED008281ED0102833D103232C491D
:1004D0002A6951F823101161526814691B013022F6
:1004E00023212846A44602B0BDE870406047254855
:1004F000181861F100011EA3D3E90023DBE70023F4
:10050000E5E70123E3E70223E1E71A881E4B33F80E
:10051000021B8A420BD12E6973680DF107029B689A
:10052000202128469847002807DA02B070BD013420
:100530000B2CECD16FF01500F7E79DF807201107A1
:10054000234604D4082C05D16FF08500EDE70A2C72
:1005500008BF092302F00F0242EA03127368D2B205
:10056000DB68202128469847DFE700BFAFF3008013
:100570003AA395000000000040420F009DD14A00C0
:100580006C000020632EB5FF507B000070B5C2B038
:1005900000F02EF9011E03DA374801F063FCFEE794
:1005A00000F0C6FB011E03DA344801F05BFCFEE7F5
:1005B000FF210022084605F025FC0021872300903A
:1005C000F022084600F0D0F8AF21FF22084605F0DF
:1005D00019FC0A212F230090DC22084600F0C4F801
:1005E000AF221146FF2005F00DFC2F230090DC22E6
:1005F0004D210A2000F0B8F8214E00F03BFA3146B8
:10060000024602A801F014FC02A805F0C1FEAF21C9
:100610000446FF22084605F0F5FB00251E23A1B283
:100620000190142202A8009500F0AEF900F072FAD1
:100630001449024602A801F0FBFB02A805F0A8FE3F
:10064000AF2204461146FF2005F0DCFB6123142293
:10065000A1B2CDE9005002A800F096F900F00AFA24
:100660000146094801F0FEFB00F054FA0146074834
:1006700001F0F8FBC1E700BF667B0000957B00003E
:10068000CA7B0000D97B0000EE7B0000007C0000EC
:1006900010B40A46836803491C680023A44610BCB2
:1006A000604700BF08790000024B00221868012152
:1006B00005F05CBB60030020024B01221868114664
:1006C00005F054BB60030020024B00221868022191
:1006D00005F04CBB64030020024B01221868022184
:1006E00005F044BB64030020024B002218680C2173
:1006F00005F03CBB60030020024B012218680C216E
:1007000005F034BB600300207FB58DF80700FFF7CC
:10071000DBFF0DF10703029302AA0123CDE90423B5
:100720000393044B04A91868FFF7B2FF07B05DF804
:1007300004FB00BF680300207FB58DF80700FFF7BA
:10074000CBFF0DF10703029302AA0123CDE9042395
:100750000393044B04A91868FFF79AFF07B05DF8EC
:1007600004FB00BF680300202DE9FF414E1E02FB81
:1007700003F43344461E32449BB292B205F016FB9A
:10078000FFF7AAFF01231F2C4FEA5415CDF808D01C
:1007900003930EDC144EDFF854804027013D12D243
:1007A000124E04F01F040225013C14D204B0BDE82F
:1007B000F081BDF828100C4A00230133202B22F8C9
:1007C000021BFAD1E6E7D8F8000002A9CDE90067DC
:1007D000FFF75EFFE2E70AAB306802A9CDE900351A
:1007E000FFF756FFE0E700BF9C05002068030020EC
:1007F00037B54A484A4C04F039F9206030B94948C5
:1008000001F030FB4FF0FF3003B030BD464801F03F
:1008100029FB206806F0EEFC28B9444801F022FBD1
:100820006FF00100F0E74248424C04F01FF92060ED
:1008300028B9414801F016FB6FF00200E4E73F4899
:100840003F4D04F013F9286028B93E4801F00AFB37
:100850006FF00300D8E72068012105F078FA2868D6
:10086000022105F074FA0C21206805F070FAFFF7F8
:1008700043FF192005F08AFAFFF736FF012005F043
:1008800085FAFFF719FF192005F080FAFFF70CFF32
:10089000192005F07BFAFFF70FFF192005F076FA13
:1008A0000120FFF731FF962005F070FA1120FFF7C5
:1008B0002BFF192005F06AFA3A20FFF725FF552093
:1008C000FFF73AFF192005F061FA3620FFF71CFF09
:1008D0006820FFF731FF192005F058FA5120FFF783
:1008E00013FF192005F052FA2120FFF70DFF132006
:1008F000FFF70AFF2920FFF707FF192005F046FA46
:1009000000242C20FFF700FF204600948723F022CC
:100910002146FFF729FF204676E700BF167C00003E
:1009200068030020227C0000417C0000547C000011
:10093000697C000060030020707C0000927C000055
:1009400064030020997C000030B51D461446013B2D
:10095000013A85B00B44024492B29BB205F026FAEC
:100960006C43089B00936400012303930194CDF82A
:1009700008D0FFF7B1FE034B02A91868FFF788FE05
:1009800005B030BD680300202DE9F04F97B08846D0
:10099000BDF88060BDF88470039091469A460025AA
:1009A000C5EBC500EAB24844424580B202D317B055
:1009B000BDE8F08F039B9C5C124B203C04EB84044D
:1009C0001C440DF1100C002214F802E061460023D3
:1009D0004EFA03FB1BF0010F03F1010314BF0E805D
:1009E0000F80072B01F10A01F2D10132052A0CF127
:1009F000020CE9D104A900915146FFF7A5FF01358A
:100A0000CEE700BFBB7C000010B588B003460C4A9F
:100A10008DF807300DF1070302930123CDE905138B
:100A200010680393002207238DF810208DF81C30E6
:100A3000836802229C6802A97623A04708B010BDF3
:100A40006C0300201FB50346094A8DF800300223CD
:100A500010688DF80110CDF804D002938DF80C3099
:100A6000836801229C6801A97623A04704B010BDC9
:100A70006C03002007B52E21F420FFF7E3FF0823C5
:100A80008DF8043001A9F320FFF7BEFF9DF8043074
:100A90001B07F7D40DF10501FA20FFF7B5FF0DF1A3
:100AA0000601FB20FFF7B0FF0DF10701FC20FFF767
:100AB000ABFF9DF806309DF8052012491B0203EBA1
:100AC00002439DF8072098180F4A1288C2EB13239F
:100AD0005200C2EBD012B1F90000424303FB03F015
:100AE0000A4BB3F90030001358438013084B00EB56
:100AF000E220186000EB80008030001203B05DF847
:100B000004FB00BFF0050020EE050020F2050020E8
:100B10007003002013B5FFF7ADFF0DF10501F720BD
:100B2000FFF772FF0DF10601F820FFF76DFF0DF1E1
:100B30000701F920FFF768FF2E4B1B685B10A3F538
:100B40007A422D4B9110B3F9000049434B134343B4
:100B50002A48B0F900005043401000EBE300284B56
:100B600080141B8800F500405843C0133FD0254B2C
:100B7000B3F90040244BB3F9003053435B009DF8B8
:100B80000620C91204FB01319DF80530120202EB68
:100B900003439DF807201A441C4BB3F900301B0493
:100BA00003EBA1031B1303EB1213194A1949534317
:100BB00003F1434303F5A003002BAABF5B00B3FB83
:100BC000F0F0B3FBF0F0144BB1F90010B3F90030C2
:100BD000B8BF4000020C5A4383084B435B1303EB3E
:100BE00022330E4AB2F90020134400EB231002B066
:100BF00010BD00BF70030020E0050020DE050020CE
:100C0000DC050020E6050020E4050020E2050020C8
:100C1000CBF3FFFFEA050020EC050020E8050020EB
:100C200010B5002488B0A4F1780001AB1919C0B246
:100C30000134FFF7E9FE1A2CF5D19DF805209DF847
:100C4000043003EB02232E4A13809DF807209DF801
:100C5000063003EB02232B4A13809DF809209DF8F0
:100C6000083003EB0223284A13809DF80B209DF8DF
:100C70000A3003EB0223254A13809DF80D209DF8CE
:100C80000C3003EB0223224A13809DF80F209DF8BD
:100C90000E3003EB02231F4A13809DF811209DF8AC
:100CA000103003EB02231C4A13809DF813209DF89B
:100CB000123003EB0223194A13809DF815209DF88A
:100CC000143003EB0223164A13809DF817209DF879
:100CD000163003EB0223134A13809DF819209DF868
:100CE000183003EB0223104A13809DF81B209DF857
:100CF0001A3003EB02230D4A138008B010BD00BF69
:100D0000EE050020F0050020F2050020DC050020A3
:100D1000DE050020E0050020E2050020E4050020BB
:100D2000E6050020E8050020EA050020EC0500208B
:100D300008B5084803F09AFE074B186028B9074821
:100D400001F090F84FF0FF3008BDFFF769FF002079
:100D5000FAE700BF9B7E00006C030020A17E00002C
:100D6000014B1B68184700BF00000020014B1860B2
:100D7000704700BF0000002007B50B460021024667
:100D80000091034800F0E6F803B05DF804FB00BFF3
:100D9000610D00002DE9F84FB0F8189019F008081F
:100DA000044693460DD001290CBF49F0100949F0C3
:100DB0002009A0F818908BF31188BFF36F8FBDE85E
:100DC000F88F09F00709022907D1204605F052F8EB
:100DD0000028F0D00128238B4ED16769218B002F8A
:100DE00015DA256821F00701C4E9008841F0010106
:100DF00021830026218B01F0070ACA4502D0A3688F
:100E0000002B5AD10DB9002E71D0002356E001F00D
:100E100007035A1F012A1ED821F00701062B256857
:100E200089B2C4E900880AD13DB1638B2A461268B1
:100E300001339BB2002AFAD1638341F0020121837E
:100E4000204605F017F806460028D3D0238B43F040
:100E500020032383CDE7042B0CD121F0070189B2B5
:100E60002183204605F006F805460028C1D041F050
:100E7000200121830025BCE7032809D1226923F042
:100E80000703166843F00603238300252F46B1E7C6
:100E9000042806D1226923F00703566843F00403AF
:100EA000F2E7052806D1226923F00703966843F08C
:100EB0000503E9E700252E46E8E7012341F0080194
:100EC00021838BF31188BFF36F8FFBB985BB16B1FC
:100ED0001F492046B0474FF02003EFF3118B83F3F7
:100EE0001288BFF36F8F238B23F008032383238B98
:100EF000DA0625D523F0100323830121B4F81890D6
:100F000009F0070900297FF45EAF54E7A1680029C2
:100F1000DCD0D1F80090D1F804B03B4652462046D0
:100F2000D847B9F1000FD1D04946D9F80090F2E77F
:100F300029463B46524620462D6804F0B7FFC5E7D8
:100F400013F020011EBF23F0200323830221D5E7E5
:100F5000D95E00002DE9F04F91B08B460290924689
:100F60001C4600259AF8000008B9284663E32528A6
:100F70000AF1010707D0029B594698470028C0F2A2
:100F80005A83013512E2182200210AA805F027FA37
:100F90009AF80130252B78D00022104696469446C8
:100FA0001646394617F8013B2B2B00F09D8000F2C6
:100FB0009480202B00F09B80232B00F09B802EB18F
:100FC0009DF8306046F004068DF83060BCF1000FEB
:100FD00005D09DF8306046F008068DF83060BEF10F
:100FE000000F05D09DF8306046F010068DF8306097
:100FF00028B19DF8300040F020008DF830002AB173
:101000009DF8302042F040028DF830209DF83020CD
:1010100002F04400442803D16FF386128DF830208B
:101020009DF830202A2B42F080028DF830207BD1B1
:101030009DF8312042F001024B1C8DF831201A78C6
:101040002E2A9DF831200CBF0121002161F34102BD
:101050008DF8312074D15A782A2A6AD001330021C0
:101060000A26184610F8012BA2F13007092F40F28A
:101070008E809DF830200E91C2F3400040EAD1717D
:1010800061F341028DF830205AE00AF102078DF831
:1010900033309DF83130D90740F1498154F8049B31
:1010A000B9F1000F07DA9DF8302042F004028DF804
:1010B0003020C9F100095A0740F1428154F8048BED
:1010C000B8F1000F80F241819DF831306FF3410398
:1010D0008DF831304FF0FF3837E12D2B0CD0302B0D
:1010E0007FF46DAF01225CE74FF0010C59E74FF040
:1010F000010E56E7012054E7012652E70CFB0202DD
:10110000303A33461E4616F8010BA0F13007092F7E
:10111000F4D9994293D09DF830100D92D20F62F31A
:1011200041018DF830108AE70B4600224FF00A0C7F
:10113000E8E79DF8312042F004028DF831200233B7
:101140001F4617F8012B6C2A41D025D8682A2BD0CE
:101150006A2A46D04C2A4CD01F4617F8012B9DF81E
:1011600031308DF83320782A00F2D980572A4DD8B3
:10117000412A03D0453A022A00F2D1809DF832304C
:10118000042262F302038DF8323001239EE006FB55
:1011900001213039034664E7742A26D07A2ADBD14C
:1011A0009DF8313006220DE05A78682A9DF83120EA
:1011B00006D1012161F3C6028DF831209F1CCCE7D6
:1011C0001346022262F3C6038DF83130C5E75A7820
:1011D0006C2A9DF8312001D10421EBE7134603224C
:1011E000F0E79DF831300522ECE79DF83130072219
:1011F000E8E7BDF8303023F4F04323F0020343F472
:10120000804343F00203ADF83030A6E7A2F1580165
:10121000202900F2848001A050F821F0E1120000A2
:101220001F1300001F1300001F1300001F130000F6
:101230001F1300001F1300001F1300001F130000E6
:101240007D1100001F130000E1120000A112000038
:101250007D1100007D1100007D1100001F130000B2
:10126000A11200001F1300001F1300001F13000035
:101270001F130000E9120000E11200000513000036
:101280001F1300001F130000051300001F130000B0
:10129000E11200001F1300001F130000E112000004
:1012A0009DF83210012003F0780360F30201402B17
:1012B0008DF8321002BF9DF8301041F001018DF819
:1012C0003010632A31D1003B18BF01239DF8302034
:1012D000C2F340010B4363F341028DF83020D8E69E
:1012E0009DF832100220DEE79DF8322003F07803EB
:1012F000A3F14000032161F3020243428DF8322042
:101300004341E3E79DF83220032113F0780F61F3A6
:1013100002028DF8322014BF01230023D6E79DF886
:10132000303043F001038DF830300023CEE79DF9D3
:101330003020002AB4BFDDF834904FF0FF39BAE610
:101340009B077FF5C7AEDDF838809DF8311000238C
:10135000CDE90D339DF8323003F00703012BC1F3C3
:10136000C30135D1CB1E042B22D8DFE803F00309DB
:101370000921210054F8043BDA17CDE90A3206E0CE
:10138000073424F00704F4E80223CDE90A239DF88A
:10139000303013F0030659D002983B465246594666
:1013A00004F088FE0028C0F246810544BA46D9E51B
:1013B00054F8043B01294FEAE372CDE90A3202D125
:1013C0009DF92830D8E70229E1D1BDF92830D3E7CB
:1013D000022B29D1CB1E042B13D8DFE803F0030A1C
:1013E0000A12120022680A920023201D0B93044661
:1013F000CDE7E01D20F00700F0E80223CDE90A2345
:10140000F5E754F8043B0A9301294FF000030B93CE
:1014100005D19DF828300A9300230B93B7E70229E2
:10142000B5D1BDF82830F6E7042B09D1E31D23F030
:10143000070303F10804D3E90023CDE90A23A6E753
:10144000032B04BF54F8043B0A93A0E79DF8330034
:101450007828ABD8622822D825283FF48CAD5828AC
:10146000A4D10DF126030093DDE90A0104AB0CAA17
:1014700004F0DAFD8246B8F1000F0DF126000CDB16
:101480009DF83020A0EB0A036FF3861298458DF883
:10149000302002D9A8EB03030D9380463EE0633869
:1014A000152883D801A252F820F000BF2D150000A6
:1014B00091150000AD130000AD130000AD13000046
:1014C000AD13000091150000AD130000AD13000036
:1014D000AD130000AD130000EB150000B9150000BE
:1014E000BD150000AD130000AD1300000515000090
:1014F000AD130000B9150000AD130000AD130000DE
:10150000B9150000B8F1000FDDF828A00ADB41464C
:10151000504604F044FF0AEB00080026BAF1000F21
:101520000CD143E7504604F033FFF4E70A9B8DF8F3
:10153000103000260DF1100A0DF11108A8EB0A0376
:1015400006B101339DF83220D00668D50233520629
:101550000D9948BF0E9A0B4448BF9B18B9F1000F74
:1015600076DD9DF83020A9EB0309C2F380030393D5
:1015700053076DD4500661D546B1029B594630469B
:101580009847002857DB039B01351E46302356E061
:101590001E070FD413F0100618BF2026DDE90A231A
:1015A000002BBFF65EAF524263EB4303CDE90A2343
:1015B0002D2656E72B26F1E7002652E70A9840B37E
:1015C0000DF1260300930CAA04AB002104F02CFDBE
:1015D000BDF8323003F0EF0343F4F04343F010035F
:1015E0008246ADF83230002645E70A9B07293FF6D0
:1015F000DDAEDFE801F00C04060C08080C0C1D70D1
:10160000D4E61D80D2E6EA17C3E90052CEE61D609B
:10161000CCE6DFF8C8A006460AF105088EE71107F8
:1016200048BF013393E7184603935946029B9847F6
:101630000028039B04DA11B0BDE8F08F20234D444D
:101640004A46002AA5EB090109F1FF39EBDC0D46FA
:1016500036B1029B5946304698470028EBDB0135EE
:101660009DF83230D90601D41A0706D5029B594697
:10167000302098470028DEDB01359DF83230DB064C
:1016800007D59DF83300029B594698470028D2DBC6
:1016900001350D9E2E44731B002B16DC0298434629
:1016A0005246594604F006FD0028C4DB0544A9440F
:1016B000A9EB0503002B7FF779AE029B594620204A
:1016C00098470028B7DB0135F2E7029B59463020E6
:1016D00098470028AFDB0135DDE700BFC17E000081
:1016E00001F08CBF2DE9F84305464FF02003EFF3DE
:1016F000118683F31288BFF36F8F0E4B1C689CB169
:101700000D4FDFF838804FF00C09D4E90132002D7D
:1017100008BF13462BB198F8142009FB02F2B85CFD
:1017200098472468002CF0D186F31188BFF36F8F9F
:10173000BDE8F88374030020880300205C050020C6
:1017400038B51A4B1C7DBFF35B8F04F01F030122D9
:101750009A40174B6109D04303EB810353E8001F04
:1017600001EA000543E8005CBCF1000FF6D1BFF3CD
:101770005B8F114213D00F4B0F4D8BB10C23634382
:10178000EA18E85C517804F051FE0020FFF7AAFF48
:101790000C235C432A1900232B51C2E9013338BDC5
:1017A00083F31188BFF36F8FEFE700BF5C05002064
:1017B000940300202D640000880300202DE9F041EF
:1017C000334B07461D7D4FF02003EFF3118883F361
:1017D0001288BFF36F8F0C242E4B2F4E6C431A19B7
:1017E000195D002949D007CA06EB040C8CE80700F4
:1017F00000221A5588F31188BFF36F8F0C236B43B7
:10180000F218F05CB8B37B1C0FD0D2F808C02348A4
:10181000234A4FF4004400210023ECFB0401FEF7AF
:10182000BFFC0121381A05F088FE03F047FD0120B6
:10183000FFF758FFBFF35B8F05F01F0201219140B6
:10184000184A6B0902EB830353E8002F0A4343E86D
:1018500000200028F8D1BFF35B8F134B33B10C206D
:1018600068433318305C597804F0D4FDFFF768FF03
:1018700003F0F4FE0120BDE8F0810146284600F0A7
:1018800015F80028B6D007C8344484E80700B1E74B
:101890005C0500207C030020880300203F420F00ED
:1018A00040420F0094030020156400002DE9F04F22
:1018B00085B00E4603A900F041F8039B01931C4B31
:1018C000DFF87080D3F800A0441E24B24FF4004724
:1018D0004FF0000B631C04D10025284605B0BDE87D
:1018E000F08F019B144A04EB440503EB8505C446C5
:1018F00068685946E0FB07C100236046FEF750FCCC
:101900008146A8680C4AC4465946E0FB07C100233B
:101910006046FEF745FCBAF1FF3F01D0824504D98D
:10192000721CDAD04844B042D7D9013C24B2D1E786
:10193000040000203F420F0040420F0008B9024B54
:101940000B600020704700BF14790000014910228D
:101950000A60704710ED00E072B6404080F31188D5
:10196000BFF36F8FBFF34F8F30BF62B6BFF36F8F80
:10197000704700BF72B6494081F3118820BF80F3E1
:10198000118862B6704700BF43B2002B08DB01220A
:1019900000F01F0002FA00F05B09024A42F823003F
:1019A000704700BF00E100E043B2002B0DDB0122D5
:1019B0005B0900F01F0002FA00F02033034A42F8EE
:1019C0002300BFF34F8FBFF36F8F704700E100E03C
:1019D000054B420900F01F0053F82220012303FAAF
:1019E00000F01040704700BF00E100E043B2002B60
:1019F000A8BF03F1604301F10101B8BF064B4FEAF4
:101A00004111ACBF03F5614300F00F00C9B2B4BF90
:101A1000195483F80013704714ED00E030BFFFF74E
:101A2000FDBF00BF0F4A08B50F4B22F07F029A603E
:101A3000BFF34F8FBFF36F8FD3F8882022F470026B
:101A4000C3F88820EFF3148323F0040383F314888E
:101A5000BFF36F8F03F04EF803F042FF00F09CF9E4
:101A600003F088F80000000000ED00E0094A0A4990
:101A700093680968D966094998664B6843F08053B2
:101A80004B60002383F31188BFF36F8F9368D86E88
:101A9000704700BF5C0500204C7B000000ED00E0BB
:101AA0000F498A684FF030001044EFF3098C80E84A
:101AB000F01F202080F31288BFF36F8F094F4FF083
:101AC0000066CA698A603E60906E0023936680F368
:101AD000118802F1300090E8F01F8CF309887047FC
:101AE0005C05002004ED00E01EF0040F0CBFEFF3D6
:101AF0000880EFF30980816911F8021C0229FFD0E8
:101B000001B504F036FC01BD42F8203C009B42F8D0
:101B10001C3C0A49019B42F8183C029B42F8143CC9
:101B200021F001014FF0807342F8043C42F8081C98
:101B30000023203A02658366704700BF15600000ED
:101B4000074B9860104681F30988002163B681F342
:101B50001188BFF36F8F0022002304F05BFA00BFEF
:101B60005C05002001B572B60B4A906900281EBFC3
:101B70000021916105F07EFB62B6EFF30580A0F1D4
:101B800010004FEAC0000549014409C99847BDE863
:101B900001400349084700005C0500202C77000045
:101BA000A51B0000044B9968D869884203D00349FB
:101BB0004FF080520A6070475C05002004ED00E0A1
:101BC0000D4B9A6A9A6A9A6A920508D59A6B9A6A34
:101BD000120404D518B19A6A22F400429A62064BA4
:101BE0009A6A9A6AD20558BF9A6A9A6A002042F4A1
:101BF0007F429A620870704700ED00E0124B9A6ACB
:101C00009A6A9A6A920708D55A6B9A6A120604D59C
:101C100018B19A6A22F080029A620B4B9A6A9A6A09
:101C20009A6AD00658BF9A6A9A6A920642BF5A6A5E
:101C300022F400525A62044A936A002043F0FF03E0
:101C400093620870704700BF00ED00E0F0B5474BAD
:101C50005B688BB00E46C3F30803002585F311883B
:101C6000BFF36F8F02F07F41B1F17F4F11D102F0CE
:101C70000C0108290DD0120701D4064601250022C7
:101C8000033B8DF80720032B53D8DFE803F00454FF
:101C9000585C2E46F3E7354BDC6A14F0020448D159
:101CA000DA6A002A15DBDC6A14F0804411D0B269CC
:101CB00032F8021C4DF60272914209D09A6AD2B2F1
:101CC00002B30DF107010120FFF798FF044600E081
:101CD00034689DF807309BB92022314602A804F0F1
:101CE00073FB099B002D3BD0C3F3080222B96FEAB6
:101CF00053236FEA4323099302A9204604F037FBDC
:101D00000BB0F0BD9F6A17F47F4705D00DF10701B6
:101D10000120FFF755FFD9E79C6A15490C40D8D040
:101D20009A6A9A6A9A6A9A6A9A6A9A6A9A6A0A434A
:101D30009A620024CDE70DF107010020C4E70DF100
:101D400007010020E5E7094B9A6A9A6A9A6A9A6A3B
:101D50009A6A9A6A9A6A6FEA02426FEA1242E7E75F
:101D600023F4FF7323F00103C5E700BF00ED00E09B
:101D70000000FFFF024A536943F0100353617047AC
:101D800000ED00E0EFF30880EFF3098101B5724642
:101D9000FFF75CFF01BD00BF044800232021C218EB
:101DA0000133302B82F80013F9D1704700E100E0D5
:101DB000FFF796FC202080F3118808484FF400615B
:101DC000401880F30988EFF314800221084380F360
:101DD0001488BFF36F8FFFF725FE0000600B002013
:101DE000084B9B6883420BD1EFF3058343B1064B4D
:101DF0005A6842F080525A605A6A22F400425A628B
:101E000003F0FCBC5C05002000ED00E0014B186015
:101E1000704700BF080000200239012902D8034B97
:101E20001B6818474FF0FF30704700BF08000020C4
:101E30000EB410B587B009AB00246FF0004153F821
:101E4000042B04900591009404A905480393FFF71F
:101E500081F8049B1C7007B0BDE8104003B07047C8
:101E6000FB6300000FB41FB506AB002153F8042B31
:101E70000548009102210393FFF76CF805B05DF867
:101E800004EB04B0704700BFF76300004FF020027E
:101E9000EFF3118382F31288BFF36F8F044A01219D
:101EA000C2F8401583F31188BFF36F8F002070478D
:101EB00000E0014020B1034B800143F001031847CB
:101EC000704700BF00790000084B70B5C31A0D467B
:101ED00007499B10044659430648402204F0C8FABB
:101EE0002B4601462046BDE870401847A803002055
:101EF000B76DDBB63C76000073B50C4C0C4A402342
:101F0000041B00930D460B460A49A4106143064684
:101F1000094804F0D9FA011E05DA30462B4602B012
:101F2000BDE87040184702B070BD00BFA803002094
:101F300039650000B76DDBB63C760000002270B555
:101F4000012104461046FFF751FD114801F04CFCF9
:101F5000104B984218D1206900F0C4F905F035F80B
:101F600026690D49304603F0D4FF00280BDB2469B5
:101F700009490125356404F11C0003F0CAFF00285B
:101F800001DBE564002070BD6FF00400FBE700BFDB
:101F9000D11F00000000AD0B4079000001460C236A
:101FA00009484B4370B5C418D4E90E56002240339B
:101FB000A263184404F049FA2DB132462B46034877
:101FC000BDE87040184770BDA80300203C760000B3
:101FD000012810B504460AD003280CD078B9084B64
:101FE0001B6C5B070BD1BDE81040FFF7D7BF00F0BB
:101FF00087F92046F7E7BDE8104000F08FB910BD23
:10200000A803002008B54FF02003EFF3118183F3FC
:102010001288BFF36F8F124A136843F0020013F067
:10202000010310600CD04FF08042D2F80C34D2F88B
:102030000C2413F0010303D00A4804F006FA01232C
:1020400081F31188BFF36F8F23B1BDE808400020F2
:10205000FFF7A4BFBDE80840012004F0C3BF00BFE4
:10206000F8030020E80300201FB500220123CDE97A
:102070000223094ACDF800D06B46CDF804D004F015
:1020800054FA002805DB4FF480420023684602F032
:1020900077FF05B05DF804FB51650000094BBFF305
:1020A0005B8F53E8002F22F0020143E80010002864
:1020B000F7D1BFF35B8FD30702D4012004F0CABF6E
:1020C000704700BFF8030020024AC3B21C2003FB84
:1020D00000207047A8030020F8B52849BFF35B8FA4
:1020E0000646012251E8003F41E800200028F9D1CE
:1020F000BFF35B8F33B9224922484B60CB608A60C3
:1021000003F01AFF731E012B20D805F0A8F804462F
:1021100010B91D4B1B7853BB4FF02003EFF3118513
:1021200083F31288BFF36F8F01244FF08047D7F8F5
:102130001834D7F81824D20309D59B0701D0012EF3
:1021400005D174B185F31188BFF36F8FF8BD1CB151
:102150002846FFF70FFCEAE70021212003F02EFBC1
:10216000E5E74FF080430222C3F80423EEE74FF087
:1021700080430222C3F808230546D6E7FC0300206B
:1021800098030020C40300201F0600200D4BBFF35E
:102190005B8F012253E8001F002903D143E8002090
:1021A0000028F7D1BFF35B8F0AD107490023CB602A
:1021B000064B4B6003238B60054B186803F0BCBED5
:1021C000704700BF0004002004040020B922000072
:1021D0001404002008B5054B0548186005F00AF8FE
:1021E00000280CBF6FF01200002008BD180400206A
:1021F0001477000007B500220023CDE9002308482A
:102200004FF40032002303F029FD064B186803F059
:10221000DCFE054B00221A6003B05DF804FB00BF32
:1022200090010020140400200004002037B51D4D4B
:10223000286883681C4CDB683921984770B10023FB
:1022400023701A46217809B1012A20DD174A13802C
:1022500001F0DCFA0123237003B030BD28688368E5
:102260006A461B690C2198470028E8D1104A019B57
:1022700093FBF2F3009A03EB82030C4AB2F90020BD
:102280001BB29A1A002AB8BF524212B2DAE7094AC0
:102290001368013901332170136003B0BDE8304089
:1022A000FFF7A8BF18040020F6050020F405002061
:1022B00090D003002004002008B5074B1B682BB901
:1022C00001F0A4FA054B01221A7008BDBDE80840D0
:1022D000034802F05DBF00BF18040020F60500208F
:1022E0000C000020034B044A186000231360034ACB
:1022F00013607047140400201C04002020040020F8
:10230000024B00221A70FFF741BF00BFF605002004
:10231000014805F036B900BF90010020024A136859
:1023200001331360FFF766BF1C04002008B5084B9B
:102330000848186004F05EFF38B10748FFF766FDF3
:102340000548FEF713FD002008BD6FF01200FBE703
:1023500024040020847600005D2300000A2838B59C
:10236000074D044604D1286883680D215B689847AF
:1023700028688368E1B25B689847204638BD00BF93
:102380002404002030B54068047B01F01F05B2F53D
:10239000001F45EA441585B04FF0000405D12846DA
:1023A00001F0DCFC002005B030BDB2F5800FCDE9B6
:1023B000024434D1B3F1007F0CBF042305238DF810
:1023C0000830836823FA01F1C9071AD4B2F1A07F5B
:1023D00017D16A09012A05F01F031C4A03F5E073AF
:1023E00018BF4FF0A04252F82330DB0709D40DF19B
:1023F00007042146284601F015FC154B984219D0D8
:1024000003940023194602AA284601F0E5FA114B6D
:10241000984218D10121284601F058FCC2E7B3F1D7
:10242000C06F05D0B3F1007F0CBF02230123C6E7C4
:102430000323C4E7204601F043FC064B9842DFD05B
:102440006FF00B00AFE76FF01500ACE70003005032
:102450000400AD0B0000AD0B10B501F021FC0446EB
:1024600068B901F0F5FB084B98420AD107482146AC
:1024700001F0D2FB224605210620FFF7B7FA002023
:1024800010BD6FF00400FBE70000AD0B91240000CD
:10249000420970B5034602D0012A15D070BD0B4E1B
:1024A000326951680029F9D003F01F0301250C6837
:1024B0009D408A682A4002D04B6830469847002CDD
:1024C000ECD021462468F4E7014EE9E75476000099
:1024D0006C7600002DE9F043D0F8048098F80C30B9
:1024E00001F01F0685B046EA43160F4630460DF14F
:1024F0000301144601F096FB14F4403581460BD1DC
:10250000304601F053FC434B994503D19DF803003D
:1025100001F0D0FB002057E00023194602AA304604
:10252000CDE9023301F058FA3A4B984202D06FF0ED
:10253000150049E0814503D19DF8030001F0BAFB85
:10254000A50354D540F206332340B3F5837F3ED034
:102550000CD8062B15D004D89BB1022BE7D104234D
:102560000FE0B3F5807FE2D101230AE040F20222BE
:1025700093422ED0B3F5407F2DD0B3F5007FD6D156
:1025800002238DF8043084F48033C3F30043E00663
:102590008DF8053054BFC4F34013032321038DF895
:1025A00006301AD5D8F80430012101FA07F7C3F82C
:1025B0000875002201A9304601F0BCFA154B98427B
:1025C00014BF6FF01500002005B0BDE8F0830723AD
:1025D000D7E70523D5E70323D3E7620341BFD8F844
:1025E0000430012101FA07F7C3F80C75E1E7E306AF
:1025F0004FF0000354BFC4F3401403241A4601A94A
:1026000030468DF8044001F0E7F9024B984281D042
:102610008DE700BF0000AD0B38B544680569E3697C
:102620009847206A04F018F800280DDB2B46084A6A
:1026300004F10801204601F069FF064B984204D1DD
:10264000204601F0C5FF002038BD6FF00400FBE715
:10265000952600000000AD0B70B544682368D3F8E0
:102660000855D3F80C65204601F0C2FF31462846D4
:1026700002F078F90546206A03F0EEFF204601F0EB
:10268000A7FF034B9D4214BF6FF00F00002070BDE9
:102690000000AD0B0378012B08D0022B08D04BB9FA
:1026A000054B0B6201F1100002F04ABC034BF8E746
:1026B000034BF6E7034BF4E70000AD0B0100AE0B54
:1026C0000200AE0B0100AD0B2DE9F04F8BB0D0F83E
:1026D00004A00669019214221D468146BAF81830FA
:1026E000D6F8248002930C460DEB0200002103F083
:1026F00076FE8DF815504FF0FF324FF0FF33304625
:1027000002F03EFC06F1100B00220023584602F0B6
:1027100037FC00273D46019B9F4201D3002449E03E
:10272000217A0B0700F18A80019B01379F420AD270
:10273000880708D4237D81EA030202F0010203F036
:102740000403134317D0C5B100236268DDF808C045
:10275000A818604575D8C90706D42168039308EB0B
:10276000050003F031FE039B62681544ADB2002BF7
:1027700036D00C34CFE70123E7E7CA0721D5236819
:102780000893636806930025237A03F0010213F08F
:10279000020F8DF8142005A90CBF202200225046FC
:1027A00001F044FF2B4B984220D00B3398424ED07F
:1027B0006FF00404304602F0C3FB20460BB0BDE8C6
:1027C000F08F216801F06043B3F1005FD7D06268F9
:1027D000BAF81A30934237D3404603F0F5FDA58886
:1027E000002DCCD0CDF820800695CDE74FF4804267
:1027F0000023584602F0C4FB18B14846FFF72CFFEF
:10280000D6E7336A134A9342D2D1237ADB0701D445
:102810000025AEE7089B9845FAD1234608E0A91A9F
:10282000D86803938DB218FA81F103F0CDFD039BB4
:102830005A689542A3F10C03F1D2E9E76FF08504E1
:10284000B8E76FF01B04B5E76FF01504B2E76FF05F
:102850000F04AFE70000AD0B032970B504691CD865
:102860000F4B58560F4B5E560F49B04202F108020B
:1028700001DD002070BD031D04EB43032569B3F99E
:1028800001301B116B4393FBF1F501FB153342F84B
:10289000085C42F8043C0130E7E76FF08500E9E7A7
:1028A000F37E0000F77E000040420F007FB54668CF
:1028B000056933680446984700282EDB6B680DF1E4
:1028C00007029B680F2120469847002825DB9DF8CA
:1028D0000730332B3FD1327BD3070BD51F4B44F648
:1028E000161142F28B40C3E900011D4949F22D2621
:1028F000C3E90261930712D40622002102A803F063
:102900006EFD07238DF808306B6802AA5E682021EF
:1029100006232046B04700280BDA04B070BD6B6870
:102920001E6980231A461E212046B0470028E3DA9C
:10293000F3E70A4B1B682B616B680022DB682321DD
:10294000204698470028E8DB6B684722DB68202197
:1029500020469847E1E76FF01500DEE76C000020A5
:1029600094B60100436810B50469586804F042FC4D
:1029700018B1034B6360002010BD6FF01200FBE73D
:102980004C7A00000B29F0B504D8072919D86FF04C
:102990008500F0BD0C29FAD10369B3F90A30002B88
:1029A0001946B8BFD91DC91019311160594201F03B
:1029B000070103F0070358BF4B4212494B435360D2
:1029C00010E00B2918BF083900690F4D19BFC9B2B3
:1029D0000C4602240021043040F2DC57A14202F1EF
:1029E000080201DD0020D4E730F8113013FB07F3B3
:1029F00093FBF5F605FB163342F8086C42F8043CED
:102A00000131EBE748E8010040420F00F8B54468A7
:102A10000569A06904F0EEFB002834D01B4BB4F824
:102A20001EC02B63A069217F4CF480320769D0F867
:102A300008E0012303FA01F63B681CF0010F14BF04
:102A40003343B3433B60DEF80030984700280EDB89
:102A5000237F0F48012202FA03F3C5E90803A069A6
:102A60008368DB6905F11C0113B96FF00400F8BD40
:102A700098470028F9DB04F118004FF0B861BDE871
:102A8000F84004F001B86FF01500F0E7D96A0000D3
:102A9000B96A0000014B01221A60704700C0004073
:102AA0000C2903690BD15B6A064907484B4393FB2A
:102AB000F0F100FB113311605360002070476FF09C
:102AC0008500704790D0030040420F00044B00691E
:102AD0000022C3F80021D3F8003102F031BA00BF60
:102AE00000C000407FB50569AB6A63B3392901D0E6
:102AF0000C292BD105F110064FF0FF324FF0FF33B8
:102B0000304602F069F9134B0193A86A03230024AD
:102B100069460394029303F00FFA4FF0FF324FF02F
:102B2000FF33284602F02CFAA86A03F04EFA0A4B4B
:102B3000D3F808256A6201225A60304602F0C4F9CF
:102B4000204604B070BD6FF00A00FAE76FF0850010
:102B5000F7E700BF952A000000C0004010B50469E7
:102B60000020FFF7B1FAA0624FF0FF3200212046AB
:102B700004F096FB04F1100004F08BFB002201210D
:102B80000C20FEF733FF0C20FEF7FEFE024B012265
:102B9000C3F80423002010BD00C000407FB50569C4
:102BA000AB6C2C6D7BB99CB900221146284604F011
:102BB00030F82C6305F1200002F0C2F9002385F8FB
:102BC0005C3004B070BD002C34D09C4228BF1C4641
:102BD000696C466869B163B101F06043B3F1005FAD
:102BE00007D0082C28BF0824286E224603F0ECFBEF
:102BF000296E6B6C00914FF6FF72944228BF144609
:102C0000AC651BB1AB6C002B18BF23460193EB6C7A
:102C100002931BB12B6D002B18BF2346002269467F
:102C20003046039301F01EFB034B9842C9D06FF06E
:102C30000404B9E71C46CBE70000AD0B2DE9F04FCB
:102C40001F468B880469814698048BB00D469046D8
:102C500000F1D4804FF0FF324FF0FF3304F1100049
:102C600002F08EF96560D9F804B0D9F810A0DBF84D
:102C7000083003939AF85D3001931BB1DAF8003005
:102C80009D426DD0AE88310500F1ED8016F0090F40
:102C900040F0E680C6F34513082B40F0E1802B6836
:102CA0000293029A7B4B9A4240F2DA800BF10C0EAF
:102CB000BEE80F000DF1100CACE80F00DDE90223B7
:102CC000934228BF13469EE80300734A93428CE860
:102CD000030040F29C80714A934240F29B80704A0C
:102CE000934240F29A806F4A934240F299806E4A32
:102CF000934240F298806D4A9342C0F097806C4AAC
:102D00009342C0F096806B4A934234BF4FF02063E9
:102D10004FF0A053B207069306F0040340F18C80F5
:102D2000002B14BF032302238DF81C30019BC6F334
:102D300000168DF81D602BB1584601F03DFA0023B6
:102D40008AF85D3053465C4A04A9584601F036F9CA
:102D50005A4B984274D101238AF85D30CAF800506A
:102D6000012384F85C30B8F1000F7FD1C4F83480BF
:102D70004246A26304F1380104F1480204F1340030
:102D800003F022FF6064002F79D1E763276404F128
:102D9000500204F1400104F13C0003F015FF00264D
:102DA0003246E06401212046266303F032FF4846A4
:102DB000FFF7F4FE256DA36C27469D4238BF1D46E4
:102DC0004FF4FA535D4357F8203B4FF4004C1B6817
:102DD000B5FBF3F53146C83540F2E7304FF47A726F
:102DE0000023E5FB0C01FDF7DBF902460B463846F4
:102DF00002F0C6F8002849D1256B23E0A369002B17
:102E00007FF428AF636899427FF424AF2BE74FF03B
:102E100000737FE74FF080637CE74FF0006379E752
:102E20004FF0805376E74FF0005373E74FF0804345
:102E300070E74FF000436DE7003B18BF012373E7D5
:102E40006FF0040523689B8813F4005304D163607A
:102E500004F1100002F074F828460BB0BDE8F08FC2
:102E60006FF01505EEE76FF08505EBE7D8F8002069
:102E70006263002A3FF47DAFD8F8042079E73B680D
:102E8000E3630BB17F6881E71F467FE76FF073054F
:102E9000D8E700BF47E801008FD003001FA107005B
:102EA0003F420F007F841E00FF083D0000127A00A1
:102EB0000024F4000048E801476D00000000AD0B5D
:102EC000074BD3F8082142B10020C3F80801D3F81A
:102ED0000821D3F818350B7070474FF0FF3070475A
:102EE00000200040024BD3F88004C3F880047047F0
:102EF0000020004070B54B79012B24D0032B1FD14B
:102F000010268B79032B1BD1CC79CCB90A79012AF5
:102F10001BD0022A1BD09AB914460B68B3F5164F82
:102F200066D031D8B3F5165F64D01AD8B3F5966F72
:102F300062D00ED8B3F5967F61D0B3F5167F61D01D
:102F40006FF0850053E00026DBE74FF480740E221B
:102F5000E3E7B3F5166F58D0B3F5965FF0D1354B74
:102F600039E0B3F5E14F53D007D8B3F5615F51D0E5
:102F7000B3F5964FE4D1304B2DE047F61225AB4226
:102F8000DED14FF4000326E0B3F5613F45D011D800
:102F9000B3F5963F43D008D84DF6C025AB4240D09C
:102FA000B3F5614FCCD1254B15E0B3F5E13FC7D167
:102FB000234B10E0B3F5612F36D007D8214DAB423B
:102FC00034D0B3F5E12FBBD11F4B04E01F4DAB4212
:102FD000B6D14FF0805305691D4832432243C0F8F3
:102FE0002435C0F86C2503C985E80300002070BDB6
:102FF000184BF0E7184BEEE74FF49E23EBE74FF446
:10300000A033E8E74FF41C33E5E74FF41D23E2E774
:10301000124BE0E74FF46C13DDE7114BDBE7114B8C
:10302000D9E74FF46503D6E70F4BD4E74FF0806341
:10303000D1E700BF00B0130000A04E0000F0EB008D
:1030400000E0D70190D0030000705F0740420F00FE
:103050000020004000509D000050270000F0750047
:1030600000B0AF0300903A0100D0BE0EF7B5436840
:10307000124C1E68076900210546C4F8001501AA14
:10308000304603F0ADFE002815DB019B326819794C
:10309000186803F0DCFE00280DDB39462846FFF7F0
:1030A00029FF40B90423C4F80035C4F80801D4F856
:1030B00008310123236003B0F0BD00BF00200040B1
:1030C000F8B50E4604F0CBF81A4D78BB64240127FE
:1030D000BFF35B8F55E8003F002B03D145E800723A
:1030E000002AF7D1BFF35B8F07D021200021013CDC
:1030F00002F064FB14F0FF04EAD10F4C0023C4F883
:103100001C31D4F81C310123A360C4F81C654FF4B2
:103110007A76D4F81C3123B9012003F009FF013E6F
:10312000F7D10123E36000232B60F8BD01232B605E
:10313000E3E700BFBC0400200020004010B50123DD
:103140008340114ABFF35B8FDC4352E8001F01EA62
:10315000040C42E800CEBEF1000FF6D1BFF35B8F46
:103160004FF4803202FA00F002F1804202F5805200
:10317000C2F80803BFF35F8FBFF36F8F0B4214BF1A
:103180000120002010BD00BFC40400201949F8B57B
:10319000044622F07F450868C1E90023A5F5001325
:1031A000101AB3F5400F22D2134B1B681A0A1B06E4
:1031B0005E19124B42F10007C3E90067012602F0D5
:1031C0006DFCA30003F1804303F58833D3F8402559
:1031D000AA420BD11EB94FF40002C3F84025084B98
:1031E0004FF4803000FA04F4C3F84443F8BD0026DD
:1031F000E5E700BFE0010020C8040020C80100206E
:103200000010014019B3BFF35B8F0123104A8340C4
:1032100052E8001F194342E8001CBCF1000FF7D12F
:10322000BFF35B8F0B4A4FF480338340C2F8043303
:10323000094BBFF35B8F1B68BFF35B8F23FA00F072
:10324000C30742BF054B4FF40032C3F8002170475B
:10325000C404002000100140C004002000E100E090
:103260000D4B1868010A0006BFF35F8F0B4BD3F8B4
:103270000435181841F10001B3F5801F0AD2084B3C
:10328000D3E90023904271EB030303D210F1807065
:1032900041F10001704700BFC80400200010014048
:1032A000C80100202DE9F04F85B016469846054626
:1032B000FFF744FF0090FFF7D3FFB04271EB080324
:1032C00078D2464B301A68EB0101984271F1000345
:1032D00080F08180424B03EB0513D3E902ABD84564
:1032E00008BF564551D04FEA850909F1804905F1DB
:1032F000500709F58839BF004FF4803101FA05F312
:10330000BFB226F07F4207F180470193D9F840050C
:10331000344B07F588371446D3F80415401A20F0CB
:103320007F4021F07F4C0128C9F840C507D1CDE985
:103330000221132004F021F9DDE90221294B01F1DA
:10334000020CA4EB0C0020F07F40B0F5000F88BF0A
:1033500064460020386038680198C3F8440324F0BC
:103360007F40C9F84005D3F80405814206D0201AF1
:10337000023820F07F40B0F5000F19D8A41A24F0CD
:103380007F4414EB060A48F1000B15490E982B01F7
:1033900001EB0512C2E902ABC8500F9B5360002439
:1033A00028460099FFF72EFF204605B0BDE8F08FB4
:1033B0002046B1E701230C4ABFF35B8FAB4052E8D4
:1033C000001F194342E800100028F8D1BFF35B8FBB
:1033D000B246C346D9E76FF01504E1E701000001EA
:1033E000D001002000100140C004002073B5194B2B
:1033F000194D00244FF0FF304FF0FF31C5F808455C
:10340000C3E902014FF48033C5F80433134B02269D
:103410004FF400320121C5F804631120C3F8802164
:103420002246FEF7E3FA1120FEF7AEFA0C4A01231A
:10343000AB602B6013600B4B0B4A0093019400238D
:103440002046FFF72FFF3046FEF746FE204602B02B
:1034500070BD00BFD00100200010014000E100E07D
:10346000C40400208D310000FFFF7F002DE9F743E9
:10347000354CD4F804339A070BD5D4F8043143B152
:10348000324A0023C4F80431D4F8043113680133FC
:1034900013604FF02003EFF3118283F31288BFF320
:1034A0006F8FD4F80433DB0312D5BFF35B8F284B47
:1034B00053E8001F21F0010043E80006002EF7D179
:1034C000BFF35B8F002936D1D4F84031002B32D1C5
:1034D000002382F31188BFF36F8F4BB3FFF7C0FE59
:1034E0004FF02003EFF3118C83F31288BFF36F8F3B
:1034F000184BD3E90267B04271EB07024FF00002AC
:1035000020D34FF0FF384FF0FF39D3E90015C3E95E
:1035100002891A604FF48033C4F848338CF3118861
:10352000BFF36F8F21B1009532463B46002088479C
:1035300003B0BDE8F0830023C4F84031D4F8403133
:103540000123C6E71146E9E700100140C804002046
:10355000C0040020D0010020431C13B521D0012855
:1035600021DDB0F5000F20DA441EFFF779FE104B85
:10357000D3E90013401AB0F5000F28BF0024013032
:1035800002190C48824228BF024652184FF0000030
:1035900009490190009143F10003FFF783FE02B057
:1035A00010BD0448E0E70024DFE7024CDDE700BF80
:1035B000E0010020FFFF7F008D31000008B5FFF71C
:1035C0004FFE024B1B68C01A08BD00BFE00100207F
:1035D000036803F01F025B09012B0260024818BF59
:1035E0004FF0A040704700BF00030050024AD2F8DD
:1035F0000034002BFBD0704700E001404FF08053B7
:1036000010B5D3F830210D2A55D14FF0804100225A
:10361000C1F80C21C1F81021C1F83825484AD3F867
:103620000404C2F82005D3F80804C2F82405D3F82E
:103630000C04C2F82805D3F81004C2F82C05D3F8FE
:103640001404C2F83005D3F81804C2F83405D3F8CE
:103650001C04C2F84005D3F82004C2F84405D3F88E
:103660002404C2F84805D3F82804C2F84C05D3F85E
:103670002C04C2F85005D3F83004C2F85405D3F82E
:103680003404C2F86005D3F83804C2F86405D3F8EE
:103690003C04C2F86805D3F84004C2F86C05D3F8BE
:1036A0004434C2F87035D1F80034DB0709D56FF027
:1036B0000103C1F800344FF08053D3F830310D2BA3
:1036C0000CD14FF08053D3F834313BB14FF010237D
:1036D000D3F808224FF08043C3F858254FF0102349
:1036E000D3F80022002A03DBD3F80432002B22DABD
:1036F000144901234FF01020C1F804351224FFF7BC
:1037000075FFC0F80042FFF771FFC0F80442FFF7F1
:103710006DFF0023C1F80435FFF768FFBFF34F8F3B
:1037200009490A4BCA6802F4E0621343CB60BFF355
:103730004F8F00BFFDE7064B064A1A6010BD00BF61
:1037400000C0004000E0014000ED00E00400FA0588
:10375000E80000200090D00370B501250268B2FA9D
:1037600082F3C3F11F035E1CDCB214D0BFF35B8F86
:1037700005FA03F322EA030350E8006F964204D1EE
:1037800040E8003CBCF1000FF6D1BFF35B8FE5D100
:1037900002480C7070BD0248FCE700BF0000AD0B92
:1037A0000200AD0B0368CB40DB0710B515D4012335
:1037B00003FA01F10368BFF35B8F41EA030250E8AB
:1037C000004F9C4204D140E8002CBCF1000FF6D120
:1037D000BFF35B8FEED1024810BD0248FCE700BF8B
:1037E0000000AD0B0400AD0B054B1A792AB95A71D4
:1037F000012218601A71034870470348704700BFE0
:10380000CC0400200000AD0B0C00AD0B4FF080434A
:10381000D3F80C24D3F80C14C80316D5D10714D54B
:10382000D3F81824D20310D50A494A7902F0FF00D0
:103830006AB9C3F80C01D3F80C2107480822C3F871
:10384000042301224A711A617047044870470448F2
:10385000704700BFCC0400200000AD0B0500AD0B8D
:103860000B00AD0B4FF0804310B5D3F8002152B1DF
:103870000020C3F80001D3F800210122C3F8082377
:10388000164B1B6898474FF08043D3F804215AB178
:103890000022C3F80421D3F804210222C3F808232C
:1038A0000E4B01201B6898474FF08043D3F80C2142
:1038B00092B1D3F8042312070ED50022C3F80C21CD
:1038C000D3F80C110821C3F80813044B5A71BDE852
:1038D00010401B680320184710BD00BFCC04002017
:1038E000036803F01F025B09012B0260024818BF46
:1038F0004FF0A040704700BF00030050034B08305A
:1039000033F81000C0F34010704700BFEC000020F7
:1039100070B500F108030C4C34F81330DA05054695
:103920000E4607D5C3F3432304EBC30254F83330E8
:1039300052689847A3682BB1E26831462846BDE833
:103940007040184770BD00BFEC000020124A0830DC
:1039500010B432F81030D9051BD5C3F3432123F43A
:10396000F85322F8103002F11004002034F8023B22
:1039700013F4807F03D0C3F34323994209D001306D
:103980002A28F3D1002342F83130044810BCFFF755
:1039900009BF10BC704700BFEC000020540100209C
:1039A00038B50246FFF7AAFF094C02F1080540B1FD
:1039B00034F8153007495B0B03F5A273002041F87A
:1039C00023001046FFF7C2FF002324F8153038BD4E
:1039D000EC000020006000402DE9FF41044617463E
:1039E0001D4621B34E4E00F1080836F818309B07EB
:1039F00006D5FFF783FF18B14A4804B0BDE8F0814F
:103A00000023CDE900338DF80E308DF80F300DF125
:103A10000F020B4620460DF10E0103F01DFB36F898
:103A2000183023F0020343F0010326F8183097B151
:103A30003B4B3E787A6804F1080033F810108F078A
:103A40000CD5002AD8D133F8102022F01C0242EA0B
:103A5000860223F81020CDBB3348CEE721F02001A9
:103A6000C904C90C23F81010002AECD0032EC3D8C7
:103A700017782EB92D4A07F5A27142F82160E2E7C6
:103A8000BA0002F1804202F5C04241EA4731D2F861
:103A900010C52CF0030CC2F810C5D2F810C52CF4D8
:103AA0004F3C2CF4407CC2F810C5D2F810E54FEA28
:103AB000042C0CF47C5C4EEA064E4CEA0E0C41F0F1
:103AC000200123F81010C2F810C5BCE7D5E9006743
:103AD0002046FFF73BFF002EBED0114D2B689E42C3
:103AE00004D16B689F4201D100220AE010480DF119
:103AF0000F01FFF731FE0C4B98427FF47EAF9DF82B
:103B00000F2045F8326005EBC20308345F6035F8DA
:103B1000143043EA422343F4807325F814309BE7C2
:103B2000EC0000200400AD0B0000AD0B0060004075
:103B300054010020F0B5044685B0154619B3334E44
:103B400000F1080736F81720930703D4FFF7D6FED5
:103B5000002858D112F01C0F02D04B78012B52D004
:103B600001238DF80F300023CDE900134A1C8B1C74
:103B700020460DF10F0103F06FFA36F8173043F0CD
:103B8000030326F8173015B9214805B0F0BD1F4EC4
:103B900004F1080736F81700830734D595F800C0FC
:103BA0006146890020F0200001F18041C00401F548
:103BB000C041C00C26F817000023C1F810356A7800
:103BC000002AE1D0D1F81035AD7823F4991323F40D
:103BD000F853C1F81035D1F810E5230203F47C53F3
:103BE000120402F4403243EA0E0313432A0502F49E
:103BF000801240EA4C30134340F0200026F81700B2
:103C0000C1F81035C0E70348BFE700BFEC00002053
:103C10000000AD0B0400AD0B014BC3E9020170477E
:103C2000EC00002008B50246FFF768FE38B1054BEE
:103C30000548083233F812305B0B0B7008BD03489F
:103C4000FCE700BFEC0000200000AD0B0400AD0B52
:103C500038B50F4C94F86C50BDB95422294604F184
:103C6000100002F0BCFB0620FDF78EFE094B0A484F
:103C7000C3F87C51D3F87C214FF00042C3F80423F1
:103C8000012384F86C30A36638BD0448FCE700BF0C
:103C9000EC000020006000400000AD0B0500AD0B03
:103CA000034B93F86C00003818BF0120704700BF29
:103CB000EC00002001460148FFF774BD50010020D0
:103CC00001460148FFF748BD5001002037B50446C2
:103CD000FFF714FE04F108021E4B33F81230E8B16E
:103CE00013F002051AD15B0B9A0002F1804000F537
:103CF000C24002F1804202F5C04205600068D2F87D
:103D0000100540F00100C2F8100529B1012202FAA5
:103D100003F3114AC2F8043303B030BDC3F3820386
:103D2000042B12D0052B12D001A80194FFF7D8FD67
:103D3000019BD0F81015D94001F001010231204655
:103D400003B0BDE8304003F0CEB90321F7E702210C
:103D5000F5E700BFEC0000200060004008B5024617
:103D6000FFF7CCFDC0B102F108010E4B33F8113062
:103D7000990711D45B0B01229A409B000A4903F179
:103D8000804303F5C043C1F80823D3F8102522F07F
:103D90000302C3F8102508BDBDE808400021104605
:103DA00003F0A1B9EC000020006000400E4B00F1D0
:103DB000080213B533F81230DB07044611D5FFF7BC
:103DC000CDFF2046FFF7ECFD01A80194FFF788FD29
:103DD000019B03F5E073022240F82320034802B060
:103DE00010BD0348FBE700BFEC0000200000AD0B56
:103DF0000400AD0B2DE9F04F644B65486549002682
:103E000087B0012234461D6835B1D0F804531542FD
:103E10001EBF1C601D68164304338B424FEA4202EA
:103E2000F1D1DFF86C81D8F87C31002B00F0918063
:103E30004FF0A043D3F820250492C3F82025D3F8EF
:103E400020280592C3F8202800270DF110097B01D6
:103E500000934FF0010A49E0009B4F4A94FAA4F402
:103E6000B4FA84F41C4404F10803E00832F8133077
:103E7000039404F007020AFA02FC19F8002022EA6F
:103E80000C0209F8002003A8C3F382059908FFF784
:103E900027FD039A02F5E0724B0750F82220AB464B
:103EA000C2F3014229D520465946D5B2FFF730FD6D
:103EB00003A80394FFF714FD039B03F5E07350F888
:103EC0002330C3F301439D4207D10021204603F074
:103ED0000AF92946204603F006F903A80394FFF7E0
:103EE000FFFC039B0AFA03F3C0F8203559F827407A
:103EF000002CB1D1CFB90127A9E7022A0CBF0321B9
:103F000002212046019203F0EEF8032D04D0019A1D
:103F1000022A06D1012DE0D159462046FFF7F8FCD0
:103F2000DBE7032AD9D1022DF5E7C8F87C41D8F8A0
:103F30007C311A494FF0A043D3F820250492C3F8EE
:103F40002025D1F820350593C1F8203513437FF49F
:103F50007BAF012416B907B0BDE8F08F96FAA6F33F
:103F6000B3FA83F304FA03F29B0003F1804303F5F1
:103F7000C04326EA0206D3F81005D3F81015C0F3A3
:103F80000520C1F30141FFF7C3FCE3E700610040F6
:103F90000060004020610040EC0000200003005061
:103FA000036803F01F025B09012B0260024818BF7F
:103FB0004FF0A040704700BF000300502DE9F341CF
:103FC000794E0579074606EB4510007F002840F042
:103FD000E680002D40F0E5803C6891F813C091F830
:103FE00011E08868C6E900230B79B27F4CEA4303ED
:103FF00043EA8E0303F0070322F007021343B3776B
:10400000CB78F377BCF1000F5DD10B7BB0F1A05FF3
:1040100008BF0325012B087800F2AB8003F07FF87E
:104020000B78019301A8FFF7BBFF019B2D0203F55D
:10403000E07345F0010240F823204878FF280DD0B6
:1040400003F06DF84B78019301A8FFF7A9FF019BDE
:1040500003F5E07345F0030240F823208B78FF2B33
:104060000CD001A891F80E800193FFF799FF019BF6
:1040700003F5E07345EA880240F82320C878FF285A
:1040800010D00B79002B77D003F049F8CB7801934F
:1040900001A8FFF785FF019B03F5E07345F00302DC
:1040A00040F82320C87BFF280DD003F02BF8CB7BF2
:1040B000019301A8FFF774FF019B03F5E07345F03E
:1040C000030540F823500B7D4BBB4B780878FF2B42
:1040D00018BF1A468B78C4F8080508BF4FF0FF32A6
:1040E000FF2B08BF4FF0FF33C4F80C25C4F8103580
:1040F0003B79A3B9CB78FF2B41D04A7C002A3ED034
:1041000008798A7CC4F81435C4F86805C4F86425B5
:10411000CB7BFF2B08BF4FF0FF33C4F86C350B7C13
:10412000C4F860358B68C4F824354B7B0A7B003BB0
:1041300018BF0123022A2CD0032A2DD0012A01D135
:1041400043F00203C4F854358B79C4F8C035072313
:10415000C4F80035336823B1386840F30730FDF701
:1041600013FC0023737711480123337702B0BDE8B5
:10417000F08102F0C7FF53E702F0C4FF86E74FF07B
:10418000FF33C4F814350023C4F86835C4F8643527
:10419000BEE743F00403D5E743F00603D2E7044843
:1041A000E4E70448E2E700BFD40400200000AD0BC0
:1041B0000500AD0B0300AD0B2DE9F3410379274D4D
:1041C00004685E0105EB4318AB590746CBB144F3D5
:1041D0000730FDF7E9FB224BC4F8083398F81D308F
:1041E0007BB1012363614FF06408D4F804312BB92B
:1041F000012002F09DFEB8F10108F6D1AB190022B2
:104200005A770023C4F80035AB199B7FDB071FD416
:10421000D4F8080502F090FFD4F8100502F08CFFE6
:10422000D4F80C0502F088FF3B791BB9D4F86C0573
:1042300002F082FFAB19DB7FFF2B09D001A80193AD
:10424000FFF7AEFE019B03F5E073022240F8232046
:10425000354400232B7702B0BDE8F081D404002060
:10426000520108002DE9F843364F037907EB431854
:10427000144698F81D2081460D465E01002A5FD144
:10428000BA592AB114F0140F04BF012288F81D2076
:1042900095E80F0007EB060C0CF10C0C8CE80F00F6
:1042A0000121404602F058FF296821B101F0604326
:1042B000B3F1005F06D1AA6852B102F06043B3F1D6
:1042C000005F05D03E4400231F487377BDE8F883A4
:1042D000D9F800306868C3F84415E968C3F84805A0
:1042E000C3F834250022C3F83815C3F81821D3F8D1
:1042F000182114F0010218BF0122C3F8502514F050
:10430000020218BF0122C3F8402514F0080204BFBE
:1043100001211961B95949B912B9D3F81821FBE73C
:104320000021404602F018FF0848CFE714F0040FC0
:104330004FF0400214BFC3F80823C3F80423F3E787
:104340000348C3E7D40400200A00AD0B0000AD0B06
:104350000B00AD0B0C4BD3F8182170B592B10B4C80
:104360000025C3F8185129462046D3F8183102F029
:10437000F3FED4E900316577257204F10800BDE849
:104380007040184770BD00BF00F00240D404002008
:10439000F0B5D0F8243187B004460D46F3B10023C0
:1043A000C0F82431D0F82431D0F80431B3B98B6887
:1043B000C0F8083302238B608B68C0F80433D0F850
:1043C00060311BB1D0F800329F0502D40123236273
:1043D0006361012385F82E3007B0F0BDD4F80431B5
:1043E000002B44D00023C4F80431D4F804312B6AE4
:1043F0005E060AD495F82E303BB92946204602F0D5
:10440000BBFE80F0010085F82E002B6A13F0040C2F
:104410003ED105F10C070FCF01AE0FC695F830E085
:104420003B68C4F860C13360D4F86031C4F85CC143
:10443000D4F85C31BEF1000F02D095F82E303BB3BA
:104440000023C4F80032AB602E4BC4F8083344F3A9
:104450000733002B4FEA14321ADB02F01F015B090D
:1044600001228A406033284941F8232010E0C4F833
:104470004831D4F848312B7B23BB05F10C070FCF13
:1044800001AE0FC63B68336095F83030002BD8D0B2
:10449000D4F8C434C4F8C434980725D501238DF862
:1044A000003095F830300BB985F82F302B6A5B0758
:1044B00003D595F82E30002B8ED0D5E90031684613
:1044C000984789E74FF40073C4F8003240F20223A2
:1044D000AB6003F1CE73C4F80833AB68C4F804339F
:1044E0000123A360236277E7590701D50223D6E7AA
:1044F000DA0701D50323D2E795F82E30002BCED072
:104500000423CCE702029C0100E100E02DE9F04128
:1045100006792B4D4FF0340C0CFB06FC05EB0C041C
:1045200094F82D70002F49D1006863604B7B84F8AC
:1045300032308B7B45F80C20A76091F80FC084F8CF
:10454000307084F82F7084F83330CBB1BCF1000F99
:1045500005D1D1E90043C0F80845C0F80C358B6897
:10456000C0F824351AB140F30730FDF70DFA3423B3
:1045700003FB06551348012385F82D30BDE8F08173
:104580000C68114B04F01F076409012C18BF4FF091
:10459000A04807F5E07408BF984640F20C6E48F852
:1045A00024E04C6804F01F076409012C18BF4FF089
:1045B000A04307F5E07443F824E0C7E70348DDE7CC
:1045C000F40400200000AD0B000300500500AD0B0B
:1045D000036802790621C3F80015044B342101FB5E
:1045E0000233022283F82D20704700BFF40400201C
:1045F00001790C4B0268342000FB013300210A488A
:104600009960C2F80803D2F8000220F4BC50C2F846
:104610000002C2F80015012283F82D2083F82F1024
:10462000704700BFF404002002029C012DE9F0470E
:10463000DFF8D0C290F804E00468342303FB0EC313
:104640001746002283F82E204B680D464BB1CB68ED
:1046500003F06043B3F1005F03D0AB4E3046BDE8DA
:10466000F0873426A94BC4F8083306FB0EC696F82B
:104670002F3003F0FF0A23B1B368C4F80433A44E0B
:10468000ECE717F0140F0CBF0123002386F82F303E
:10469000A946B9E80F0006F10C08A8E80F00D9F800
:1046A0000030C8F80030C7F3001386F830303762A6
:1046B0006B78C4F88835C4F804A1D4F80431C4F880
:1046C00024A1D4F82431C4F860A1D4F86031C4F82E
:1046D00048A1D4F8483117F0010318BF0123C4F8EA
:1046E000503517F0020318BF0123C4F840352A786B
:1046F000032A00F2B580DFE802F084A069022B698A
:1047000003F06041B1F1005FA7D14FF48071C4F8AC
:104710000012E8686968C4F84405C4F84815002127
:10472000C4F85011D4F8500101202062A060D4F8E0
:1047300050010028FBD0C4F85011D4F85011A968DA
:10474000C4F84435342303FB0EC3C4F848154FF4B2
:104750008021996008236F4E390706D4032A04D0BC
:104760000122E2506B6803B96261342303FB0EF34C
:104770000CEB03015CF80320002A74D10121D4F86A
:104780004831D4F80401002840F08880003B18BF6D
:104790000123D4F82401002800F08680C4F82421E5
:1047A000D4F82401D4F86051D4F8000215B110F403
:1047B000007F04D121626161002DE0D00023C0059B
:1047C00072D5C4F84821D4F84831D8E76B68E96855
:1047D000C4F84415C4F848352B6903F06041B1F1C1
:1047E000005F7FF43AAFA968C4F834354FF48453BE
:1047F000C4F83815C4F80032342303FB0EC3022179
:1048000012E06B68E968C4F8441517F0200FC4F88B
:1048100048354FF034030BD04FF48071C4F80012C8
:1048200003FB0EC34FF4802199600123236291E7BB
:104830004FF40071C4F80012DFE76B68E968C4F850
:104840003415C4F838354FF48053C4F8003234239B
:1048500003FB0EC3022199600123236200237AE740
:104860002D4E082378E77A0744BF00238B607B0630
:1048700006D4342303FB0EC39A6842F002029A6006
:10488000342303FB0ECCDCF8083043F40073CCF87F
:104890000830DCF80830C4F80433DFE6C4F804213B
:1048A000D4F80431012374E7002B3FF468AF3421BE
:1048B000D4F8C434C4F8C43401FB0EC2002082F81A
:1048C0002F008BB1154A164E13F0010F18BF164674
:1048D00013F0020F02F1010218BF164613F0040F85
:1048E000104B18BF1E46B9E67B063FF5B7AE0EFB70
:1048F00001C1204602F040FC094B002808BF1E46BB
:10490000ACE600BFF40400200A00AD0B02029C01DB
:104910000B00AD0B0000AD0B0400AD0B0000AE0BA7
:104920000100AD0B0200AE0B01490248FFF730BD9C
:10493000F40400200030004002494FF04020FFF70F
:1049400027BD00BF28050020036803F01F025B0994
:10495000012B0260024818BF4FF0A040704700BF13
:1049600000030050F7B5064602F036FC084602F098
:1049700033FC01A80196FFF7E7FF019B03F5E07305
:104980000C4640F20D6140F8231001A80194FFF796
:10499000DBFF019B03F5E073092540F82310042099
:1049A00002F0C6FA012701A80194FFF7CDFF019A92
:1049B000D0F81035D340DB0715D401A80196FFF7D6
:1049C000C3FF019B07FA03F3C0F80C35042002F083
:1049D000AFFA304602F000FC013D042002F0A8FAD4
:1049E00015F0FF05DFD101A80194FFF7ADFF019A93
:1049F00001239340C0F80C35042002F099FA2046B8
:104A000002F0EAFB042002F093FA01A80194FFF7F8
:104A10009BFF019AD0F810350348D34003F00103FF
:104A2000C01A03B0F0BD00BF0100AD0B0E4B70B556
:104A300053F82040013053F82060A64200D870BDE2
:104A4000D4E900352846984765B1EB6830B10028B5
:104A5000B8BF4042FF28A8BFFF2018705A7842F024
:104A600001025A700834E8E7387B000070B505464B
:104A700010B90024204670BD0378002BF9D00E4CED
:104A80000E4EB44208D10C4CB442F2D0204602F093
:104A9000B1FB50B91834F7E7204602F0ABFB10B178
:104AA0002368AB42E6D01834EBE72168284601F0D2
:104AB0007FFC0028EED1DDE73C7600002C7700007B
:104AC00008B50A4B012202201A70FFF7AFFF01F070
:104AD00017F90320FFF7AAFF00F006F9FBF756FDD0
:104AE000034A137B23F00103137308BD1F06002044
:104AF0005802002008B50348034A0021121A02F0A8
:104B0000AAFB08BDC80100202006002070B5144E85
:104B1000144D1549702386B003FB00660122002363
:104B2000CDE904230F22CDE902320193182303FBC0
:104B300000554FF4A072044602FB00110B4B009588
:104B4000304600F07BF8737B09482C75013423F064
:104B5000040300EBC4247373EE606C6006B070BD98
:104B6000E80100205C050020200A0020A14D000083
:104B7000600B002080B52A4BA2B083F30888294D32
:104B8000294E6B69294F43F400736B610024E023C5
:104B900085F82230EC772C766C76AC7685F8204060
:104BA0006B6A43F4E0236B6285F82340FDF7E2F87B
:104BB000FCF7CCFE4FF0FF33AB62EB6240F2011327
:104BC000ADF8243006ABB3601F9402F012FB204610
:104BD000FFF72CFF0120164DFFF728FF00F05AFDCC
:104BE000144BF5610593012313490094CDE9034368
:104BF0004FF480623B46CDE90144284600F01EF8A0
:104C00006A7B064622F0040228466A7302F0C9FB5A
:104C10002046FFF77BFF3A4631462846FCF790FFD7
:104C20006013002000ED00E05C050020C14A000098
:104C300058020020267F0000200600207FB50C9E31
:104C4000067307320426467300F158050B9E8673DF
:104C500022F00702C0E916558E1800250A9A8560D1
:104C6000C0E90655C5730292099A0192089A00920A
:104C700032460446FCF748FF044B65659B6803B168
:104C80005B6E6366304604B070BD00BF5C050020FB
:104C9000F0B587B000270597109F04970F9F0397E3
:104CA0000E9F0297DDE912650D9F01970C9F0097FB
:104CB0000446FFF7C3FFB5F1FF3F08BFB6F1FF3F62
:104CC00005D055EA060305D1204600F0DDFB20465D
:104CD00007B0F0BD034932462B4604F1180000F03E
:104CE00063FEF4E7C37300002DE9F043294C2A4D1D
:104CF00087B02646AE4204F130040FD300F0DEFA4E
:104D0000244CDFF898904FF4004640F2E737AC426D
:104D100020D307B0BDE8F04300F0A0BC54F8043C39
:104D2000059354F8103C049354F8143C039354F83E
:104D3000183C029354F81C3C019354F8203C009317
:104D400054E90C0154E90A23FFF778FF54F8303C8A
:104D50005E65CEE7636A5A1C0DD023EAE373002137
:104D60003846C3FB060151EAC333D4F8008004D1AE
:104D7000404600F089FB3034C9E74FF47A720023D3
:104D8000FBF70EFA02460B4608F11800494600F000
:104D90000BFEF0E78C0100208C010020C3730000A3
:104DA00008B50B4C0B4D4FF02002EFF3118382F34B
:104DB0001288BFF36F8F02F0B0FB2B78A06113B99C
:104DC000FCF7CAFDEFE7FCF7F9FC0028EBD1F7E7A9
:104DD0005C0500201F0600202DE9F341044617461C
:104DE0001E464FF02003EFF3118883F31288BFF3C0
:104DF0006F8FC368324A6BB180689168884219D05E
:104E000057EA060318D188F31188BFF36F8F6FF04C
:104E10000F000CE0916891F90E1021610133E360FD
:104E20009368A36088F31188BFF36F8F002002B0EE
:104E3000BDE8F0812169F0E791F90E1090F90E308C
:104E40009942A8BF19466FF07E029142B8BF114641
:104E50008B422EDD02F015FA0546CDE900761948A1
:104E60002246414600F06CFB0028E0D04FF02003C2
:104E7000EFF3118683F31288BFF36F8F23682169E4
:104E80009C420AD04BB193F90E309942A8BF194603
:104E90006FF07E039942B8BF1946A06802F0F1F99D
:104EA00000B945B10748314600F0F6F96FF00A0045
:104EB000BDE70025D1E786F31188BFF36F8FF5E7D3
:104EC0005C05002020060020836870B504466BB3A3
:104ED000194A926893422CD1C368012B03D9013B34
:104EE000C360002070BD4FF02003EFF3118583F302
:104EF0001288BFF36F8F0169806802F0C2F9204603
:104F000002F0C0FA0026A06050B190F90E20226194
:104F1000C66602F046FA0948294600F0BDF9E0E706
:104F2000E06085F31188BFF36F8FDAE76FF015004B
:104F3000D8E74FF0FF30D5E75C05002020060020C1
:104F400038B504464FF02003EFF3118583F3128840
:104F5000BFF36F8F02F096FA48B10022C26602F0EA
:104F600020FA29460548BDE8384000F095B9D4E953
:104F700002329A4218BF0133A360F2E720060020F4
:104F800013B54FF02004EFF3118184F31288BFF3BF
:104F90006F8F846844B1013C846081F31188BFF352
:104FA0006F8F002002B010BD52EA030406D181F3D6
:104FB0001188BFF36F8F6FF00F00F3E7CDE9002387
:104FC0000246024800F0BCFAECE700BF20060020D1
:104FD0002DE9F04F454E85B004464FF0FF384FF0B5
:104FE000FF394FF02003EFF3118783F31288BFF3EB
:104FF0006F8F256F8DB9022104F1880002F05CF9F2
:10500000002832D10023CDE90089029304F178020F
:105010003946374800F052FCE3E7626F2B6823679C
:10502000954200D16367D4F8883043F00203C4F896
:105030008830EB6823F0040343F00103EB606B68F6
:1050400087F31188BFF36F8F284698474FF02003EE
:10505000EFF3118B83F31288BFF36F8FEB6899071F
:1050600023F001020BD4EA600EE004F18005002277
:105070000121284602F01EFA0028F8D1C2E7306864
:1050800023F00303EB6070B9D4F8883023F00203F7
:10509000C4F888308BF31188BFF36F8FD805A0D484
:1050A00000F004FB9DE70027D0F800A03B464268D3
:1050B000954201460CD1016897B97268316082420D
:1050C00000D1716040F8083BFFF73AFF39460023F2
:1050D000BAF1000FD8D050460F46DAF800A0E6E744
:1050E00072683960904208BF7760EBE78405002062
:1050F00020060020F8B5C3689A0704460E46C3F39D
:1051000040051FD45F071FD40A680AB982680A6085
:10511000D80744BFA368336037684CBF0225012518
:105120006FB31A4B9B68BB4211D102F098F880F024
:105130000100C0B2D7F88830D907C3F3800221D567
:105140003AB140B96FF00F050023336012E0002040
:10515000F0E71B07F6D4002323607B6F63B9C7E930
:105160001C44384602F0B3F8E36843F00403E360FC
:105170003368A3602846F8BD1C607C67F1E76FF0D8
:105180001505E1E76FF01205DEE700BF5C050020C2
:105190000146014802F0B6B8D0020020F0B589B04F
:1051A00004460020C4E91C000E9D04F17800C4E907
:1051B0001E0004F18000C4E920001DB328790028F6
:1051C00040F2011008BF0120C4F8880000204FF011
:1051D000FF364FF0FF37CDE90330CDE90100CDE9CF
:1051E0000667094B00942046FFF752FD25B1296858
:1051F00011B1204602F039F8204609B0BDE8F04070
:1052000002F036B80120DFE7D14F000038B5074D76
:105210002C6854B1FEF7D2F9054B04441C61286890
:105220000021BDE8384002F088B938BD940500205F
:105230005C050020F8B504460D464FF02003EFF35F
:10524000118783F31288BFF36F8F104E00214FF444
:10525000004C40F2E730316100234FF47A72E4FBF6
:105260000C01FAF79DFF002C094B0ADC1860094B72
:10527000B0681D60FFF7CAFF87F31188BFF36F8F17
:10528000F8BD0228B8BF0220F0E700BF5C0500208F
:10529000940500209005002049B9EFF3058030B94E
:1052A000054BDA699B689A4201D0FCF7DFBB81F3BA
:1052B0001188BFF36F8F70475C0500204FF020030B
:1052C000EFF3118183F31288BFF36F8F044B9A6859
:1052D000D37B013BD37381F31188BFF36F8F70478A
:1052E0005C05002038B502460C480D4D02F053F81D
:1052F000044600B9EC68AB684AB95A7BD20606D1BD
:10530000A26922B9DA897F2A01D9EB6138BD9C42B2
:1053100002D02046FFF77AFFEC61F7E77C0500201A
:105320005C05002070B590F90D20437B002A0146F2
:1053300004DA03F07F03437301F0F5FF4B7B154A5A
:1053400063F07F034B73D2E9083402F12005AB42CE
:105350001BD0D3B191F90E6093F90E0086420FD0A5
:10536000801B00280CDD5868C1E9003001605960DD
:105370009068431A5842BDE870405841FFF7B2BFE9
:10538000A34202D01B68002BE6D1C1E90054216082
:105390005162EDE75C05002038B54FF02003EFF3D4
:1053A000118583F31288BFF36F8F174B174A9C68E0
:1053B00011688C4207D12046FFF728FF85F311883A
:1053C000BFF36F8F38BD00211160114A1268C2B15E
:1053D000E2897F2A15D8627BD20612D10D4A94F950
:1053E0000E10126891420CDB0B4A944209D01A69E4
:1053F000824203DC2046FFF795FFDCE7121A1A61B0
:10540000DCE70022FBE700BF5C0500208C050020E4
:105410009405002090050020E801002070B490F968
:105420000D20437B002A2ADBDA0628D1826932BBB1
:10543000144A63F07F034373D2E9083402F1200574
:10544000AB4217D0B3B190F90E6093F90E108E42B3
:105450000BD0891B002908DD5A68C0E900321060B2
:10546000586070BC0020FFF73DBFA34202D01B680C
:10547000002BEAD1C0E9005420605062F1E770BC13
:10548000704700BF5C05002010B54FF02002EFF31D
:10549000118482F31288BFF36F8F427B510704D4CB
:1054A00084F31188BFF36F8F10BD22F004024273A2
:1054B000FFF7B4FF21460248BDE81040FFF7ECBEFD
:1054C0002006002008B590F90D20437B002A0146F4
:1054D00004DA03F07F03437301F025FF044B98685F
:1054E000431A58425841BDE80840FFF7FBBE00BFD1
:1054F0005C0500202DE9F041064615461C464FF09C
:105500002003EFF3118783F31288BFF36F8F01F04D
:105510007AFF87F31188BFF36F8FB4F1FF3F08BFA5
:10552000B5F1FF3F08D02A46234606F1180003498B
:10553000BDE8F04100F038BABDE8F081C373000067
:1055400010B5074B9868074B0C4618601146DDE90B
:105550000223FFF7CFFF2046BDE81040FCF786BAD4
:105560005C0500208C050020F8B504464FF02003B0
:10557000EFF3118683F31288BFF36F8F437BDA0654
:1055800049B233D182698ABB03F07F03437301F0D0
:10559000CAFE437B174A817363F07F03437310464F
:1055A00050F8203F83421BD0D3B1576A93F90E5075
:1055B000A94210D06D1A002D0DDD5A68C4E90032E1
:1055C00014605C600120FFF78DFE012086F31188D6
:1055D000BFF36F8FF8BDBB4202D01B68002BE5D133
:1055E000536AC4E900031C605462EBE7A173002016
:1055F000ECE700BF5C05002070B50446183001F0F0
:1056000076FF4FF02003EFF3118683F31288BFF388
:105610006F8F94F90D20637B002A05DA03F07F0376
:105620006373204601F07FFE0B4D637BA86843F057
:1056300010036373031B58425841FFF753FE86F370
:105640001188BFF36F8FAB68A34203D1BDE87040F0
:1056500001F097BE70BD00BF5C05002010B54FF093
:105660002003EFF3118483F31288BFF36F8F084B8D
:105670009A68D37B0133D3730020FFF733FE84F3A2
:105680001188BFF36F8FBDE8104001F07ABE00BFF4
:105690005C050020044B002103F12002C3E908222D
:1056A0000846FFF7C7BD00BF5C050020F8B54FF006
:1056B0002003EFF3118583F31288BFF36F8F1A492C
:1056C0008868437B03F07F03437301F02CFE8B68F3
:1056D0005A7B084662F07F025A7350F8202F8242AC
:1056E0001CD0DAB14F6A93F90E6092F90E40A642CF
:1056F0000FD0A41B002C0CDD5168C3E900210B6006
:1057000053600120FFF7EEFD2846BDE8F840FCF7A6
:10571000ADB9BA4202D01268002AE6D14A6AC3E99A
:10572000000213604B62ECE75C05002050EA0103C5
:105730002DE9F04105460E4603D1FFF7B7FF0020E3
:1057400033E06FF00104241A4FF0FF3363EB0103E1
:10575000012C73F1000302DA01F009FF44194FF044
:105760002003EFF3118883F31288BFF36F8F104F7C
:10577000104BB8681860FFF7A5FEB8680E492A46B6
:105780003346183000F010F9BA68537B43F0100329
:1057900053734046FCF76AF901F0E9FE201A63EB07
:1057A0000303012873F10003C9DBBDE8F08100BFEA
:1057B0005C0500208C050020C3730000B1F1FF3FA1
:1057C00008BFB0F1FF3F08B506D1084B9868FFF756
:1057D00013FF4FF0FF3008BDFFF7A8FF4FF47A73B7
:1057E00080FB0303C00B40EA4340F4E75C05002064
:1057F000014B9868704700BF5C0500202DE9F0411F
:1058000004464FF02003EFF3118683F31288BFF3B1
:105810006F8F037BD9070BD586F31188BFF36F8F8A
:10582000404080F311884FF0040002DFBDE8F081B2
:10583000437B1A0704D586F31188BFF36F8FF5E712
:1058400023F0200242F00801D20920D14173A3685D
:1058500013B1204601F06FFD04F1180001F047FE7E
:1058600004F158074FF00008A56DBD4200D0B5B94E
:105870000120FFF737FD104B9B68A342DBD1EFF30C
:105880000583002BD7D13046FCF7F0F8D3E703F0BF
:105890005F0343F00803437301F045FDD7E7284653
:1058A00001F049FD05F1180001F021FEC5F86C80FA
:1058B0002846FFF7B3FDD7E75C050020D3B5DDE947
:1058C0000667089CCDE90067FFF73AFE1CB1034B61
:1058D0009B685B69236002B0D0BD00BF5C050020FF
:1058E00008B50648064A0749121A01F0B6FCBDE899
:1058F0000840054A0549064801F0AFBC00000020F9
:10590000C80100207C7F0000000000007C7F0000B8
:1059100000000020034B1B680BB9FDF74FBE0020B1
:10592000704700BF98050020104B10B51C689C42C2
:1059300008BF0024FFF7EEFFA4B1D4E904321B1A1C
:1059400062EBE070B3F1004F70F100020ADA002858
:10595000ACBF18460020064B1B6913B19842A8BF84
:10596000184610BD6FF00040F5E700BF5C01002055
:105970005C05002030B5036868B10A4A526890425D
:1059800009D043B1D3E90421D0E90445121941EB10
:105990000501C3E90421426813605A600023C0E98D
:1059A000003330BD5C010020B3F1FF3F08BFB2F10E
:1059B000FF3FF8B504461F46154667D081604FF09B
:1059C0002003EFF3118683F31288BFF36F8F6FF01C
:1059D0000102531B4FF0FF3C6CEB0703002B1BDB5A
:1059E0002B4BD3E90013521A6CEB0303551B63EBEB
:1059F0000703012D73F10002BCBF01250023C0E99C
:105A000004532448D0E9003C834218D1C4E9000C77
:105A1000CCF80040446026E0FFF77CFF013547F1F9
:105A200000072D1847EBE077C4E90457E9E7521A5D
:105A300065EB07059C45C4E90425E7D01B68002BEE
:105A4000E4D0D3E90417D4E904258A4275EB070EA4
:105A5000EDDA8A1A67EB0505C3E904255A68C4E93B
:105A6000003214605C60036883420BD09C4209D111
:105A7000FFF75AFF18B1084B1B69834202D000217F
:105A8000FDF76AFD86F31188BFF36F8FF8BD00BF85
:105A9000C80200205C0100205C0500202DE9F843CD
:105AA0000446FFF779FC4FF02003EFF3118583F3F1
:105AB0001288BFF36F8F244FDFF89080244E3C6034
:105AC000D8F800003B684045D6E9002E4FEAE37164
:105AD0000BD050B1D0E9044CA34271EB0C0916DA9B
