:10000000484A00204D2D0000599F0100392D000065
:10001000392D0000392D0000392D000000000000AE
:100020000000000000000000000000004D2E000055
:10003000392D000000000000192E0000392D0000AD
:10004000E12F00007FFA0100E12F0000E12F000006
:10005000E12F0000E12F0000E12F0000E12F000060
:10006000E12F0000E12F0000E12F0000E12F000050
:10007000E12F0000E12F0000E12F0000E12F000040
:10008000E12F0000E12F0000E12F0000E12F000030
:10009000E12F0000E12F0000E12F0000E12F000020
:1000A000E12F0000E12F0000E12F0000E12F000010
:1000B000E12F0000E12F0000E12F0000E12F000000
:1000C000E12F0000E12F0000E12F0000E12F0000F0
:1000D000E12F0000E12F0000E12F0000E12F0000E0
:1000E000E12F0000E12F0000E12F0000E12F0000D0
:1000F000E12F0000E12F0000E12F0000E12F0000C0
:1001000053B94AB9002908BF00281CBF4FF0FF317E
:100110004FF0FF3000F00CB8ADF1080C6DE904CEE3
:1001200000F008F8DDF804E0DDE9022304B07047D0
:10013000704700BF2DE9F04786468C460846089E6A
:10014000154674461946002B40F0C2808542B2FA2B
:1001500082F245D94AB1C2F1200300FA02FC2EFA1C
:1001600003F3954043EA0C0C94404FEA154EA8B2B5
:10017000BCFBFEF8230C0EFB18CC08FB00F943EA8D
:100180000C43994528D9EB1808F1FF3704D299455B
:1001900002D9A8F102072B44A3EB0903A4B2B3FBD5
:1001A000FEFC0EFB1C330CFB00F044EA0344A042AF
:1001B00014D92C190CF1FF3304D2A04202D9ACF1AE
:1001C00002032C44241A43EA07401EB1D440002302
:1001D00034607360BDE8F0874746DDE76346F1E7CA
:1001E00092BB431B01214FEA154EAFB2B3FBFEFC9D
:1001F000200C0EFB1C330CFB07F840EA0343984528
:1002000062D9EB180CF1FF3004D2984502D9ACF159
:1002100002002B44A3EB0803A4B2B3FBFEFC0EFBCD
:100220001C330CFB07F744EA0344A7424ED92C19B0
:100230000CF1FF3304D2A74202D9ACF102032C44E3
:10024000E41B43EA0040C0E7C2F1200320FA03F1B7
:10025000954090402EFA03F303434FEA154EAFB298
:10026000B1FBFEFC0EFB1C10190C0CFB07F841EA5D
:100270000041884504FA02F422D969180CF1FF30D4
:1002800004D2884502D9ACF102002944A1EB08014F
:100290009BB2B1FBFEFC0EFB1C110CFB07F743EA03
:1002A00001439F420ED9EB180CF1FF3104D29F425B
:1002B00002D9ACF102012B44DB1B41EA004192E779
:1002C0006046E3E76146F7E76046A3E76346B7E7C2
:1002D000834206D916B9002108467BE7C6E900E04B
:1002E000F9E7B3FA83F78FB9834201D3724508D88F
:1002F000BEEB020460EB030301209C461EB9002103
:1003000068E73846FAE7C6E9004CF8E7C7F1200C81
:10031000BB4022FA0CF41C432EFA0CF120FA0CF329
:10032000B84001434FEA14490EFA07F5B3FBF9F858
:100330001FFA84FE09FB18300B0C08FB0EFA43EA87
:1003400000439A4502FA07F240D9E31808F1FF305A
:1003500004D29A4502D9A8F102002344A3EB0A0370
:1003600089B2B3FBF9F809FB183308FB0EFE41EA2A
:1003700003418E452CD9611808F1FF3304D28E4514
:1003800002D9A8F10203214443EA0040A0FB0298ED
:10039000A1EB0E014145CE46434602D306D14D4561
:1003A00004D2B9EB020E68EB04030138002EA6D08C
:1003B000B5EB0E0261EB030101FA0CFC22FA07F324
:1003C0004CEA0303F940C6E9003198E74046C5E727
:1003D0004346D9E7034611F8012B03F8012B002A05
:1003E000F9D17047034613F8012B002AFBD1181AE4
:1003F0000138704700000000F7B5002101AA40F65F
:10040000034003F0A5FB044600286DD10198C368A2
:100410001B788BB9BFF35B8FBF4B1A68BFF35B8F41
:1004200002F00902BFF35B8F53E8001F43E800248A
:10043000002CF9D1BFF35B8F12F024FD01AA00213B
:1004400041F2030003F084FB044600284CD1019ADA
:10045000B24DD168D1F80100D1F8051005F178034B
:1004600003C3104612F00EFD214601AA41F201001D
:1004700003F06EFB0446002836D10198C3685A7811
:1004800085F870205A88A5F872201A7985F87120AD
:10049000B3F80720A5F87420B3F80530A5F8763036
:1004A00012F0F0FC214601AA41F2020003F050FBD9
:1004B0000446C8B9019FFA6805F18006531C413211
:1004C00018685968344603C4083393422646F7D166
:1004D000934819F0C6FD384612F0D4FC95F87C30EC
:1004E0005B0604D46FF01204204603B0F0BD01AAED
:1004F000002142F2030003F02BFB04460028F3D155
:10050000019B884EDA68D2F80100D2F8051003C6C4
:10051000184612F0B7FC214601AA42F2020003F08D
:1005200017FB04460028DFD1019CE368B3F80120E3
:1005300091B249B1D97839B1A5F80421DA781146D8
:1005400006F1280020F011FC204612F09BFC95F8E3
:100550007C601F2316F02006A5F8203118D1022157
:1005600040F66D4003F080F90446002800F0CC808E
:1005700002210C301FF021FE01230370467021463A
:10058000324640F66D4003F0E3FA04460028ABD152
:1005900095F89C301F0712D501AA002142F21C00D9
:1005A00003F0D6FA044600289ED10198C368D3F818
:1005B0000120D3F80530C5E9382312F063FC95F823
:1005C000D8309E0624D50DF1020168461AF0F5F8E0
:1005D0000446002888D1042142F2240003F044F9A3
:1005E0000646002800F0908004210C301FF0E5FD45
:1005F000BDF800300380BDF802304380224631460A
:1006000042F2240003F0A4FA044600287FF46CAF01
:1006100095F8D8305C0610D501AA002142F22A00D4
:1006200003F096FA044600287FF45EAF0198C36891
:100630005B7885F8223112F025FC082142F2010096
:1006400003F012F9044600285ED008210C301FF098
:10065000B4FD95F8D81011F0400F024640F2022385
:1006600008BF032388074CBF43F02C0043F00C0065
:1006700095F8D9308F0648BF40F0400013F0090FBD
:1006800095F8A23018BF40F4006003F00603CE07CF
:1006900048BF40F01000062B08BF40F4C070002196
:1006A00019F07CFE2146002242F2010003F050FACC
:1006B000044600287FF418AF95F87C30B5F8041193
:1006C000980624D4C9B901AA41F2050003F040FA02
:1006D000044600287FF408AFB5F80431019C4BB9FB
:1006E000E368B3F80120A5F804219A880E48114662
:1006F00020F03BFB204612F0C5FB082140F60140EC
:1007000003F0B2F8044688B96FF06804ECE60029FB
:10071000F3D16FF00404E7E6D400002000000020CD
:1007200080000020D80000200801002008210C30A3
:100730001FF043FD95F8D830D90702464AD42A481D
:100740004FF0005119F02AFE2146002240F60140E8
:1007500003F0FEF9044600287FF4C6AE014601AA64
:100760004FF6014003F0F4F9044620BB019812F063
:1007700089FB214601AA4FF6024003F0E9F904463D
:10078000C8B90198C368B3F80130A5F8C13012F0B8
:1007900079FB95F8C1305B070DD501AA21464FF6CC
:1007A000034003F0D5F930B90198C3685B7885F848
:1007B000C03012F067FB03F0ABFF044600287FF463
:1007C00093AE05F0F1F8044600287FF48DAE03F0F7
:1007D00027F989E602A1D1E90001B3E7AFF3008070
:1007E00090880002008000201088000200000000B5
:1007F0002DE9F0470F46D0E906A1D0F82090DFF8A8
:10080000688001EB09043034A245164614A3D3E9ED
:10081000002314D8A1FB0801FFF772FC10A3D3E951
:100820000023A4EB0A0420F07F45A4FB0801FFF796
:1008300067FC20F07F403D603060BDE8F087AAFB98
:100840000801FFF75DFC20F07F4509F1300004A3AB
:10085000D3E90023A0FB0801E9E700BFAFF3008064
:100860008D49FD1A0700000000CA9A3B00000000F5
:100870002DE9F04F8DB020B90DB0BDE8F04F0BF071
:10088000CDBDC74D95F86A4014F0010440F0558184
:1008900095F82500FF2300F0030085F826300FF0BF
:1008A000D9FA95F86A0041070DD5224605F16B018A
:1008B000C0F3C0000FF02CFCFF2885F8260002D002
:1008C00020460FF0E1FA95F8293005EB8303DF6A43
:1008D00095F8353005EB8303D3F838A057B1B0480D
:1008E00039461DF06FFA3B785A060ED4AC48514693
:1008F0001DF068FA3B7813F00E0F40F09F802B6AD2
:1009000053B10C200DB0BDE8F08F06211CF0B8FDEE
:100910000028EBD11220F5E709F06AF9804630B1E2
:1009200009F0D8F9814620B9404609F067F9072057
:10093000E8E70BF0A9FF044618B9484609F0D0F9DA
:10094000F2E74FF6FF730385D0F8883000F11C0BF7
:100950001BB900F18003C0F8883004F17C0204F177
:100960007801D4F888001CF096FD94F88E3023F0BE
:10097000070384F88E30B4F8763023F4EF6323F065
:10098000070343F48C7343F00103A4F8763094F822
:10099000393003F03F0363F07F0384F8393094F873
:1009A0003C3023F00703002684F83C304FF4C0238A
:1009B000C4F888312046C4E91266C4F88860A4F8F7
:1009C0008C60E685266384F83B602665A4F88E611A
:1009D000A4F884611EF075F884F85061C4F854815D
:1009E0000CF0ACF894F8943160F3020384F894317D
:1009F0000CF0AAF894F8943160F3C50384F89431AC
:100A000094F8803166F3410384F880310121204657
:100A10000CF0A4FA04F1D4001DF032FFC5E91889E6
:100A2000C5F820B0C4E905662670E46110F008FC42
:100A300020B15B480BF046FA032063E795F82430B9
:100A40000121C3F342030DF12B008DF82B301CF074
:100A50004EFD0246002800F094809AF801103846B6
:100A60001DF061F9002431234E492C70C5E9023490
:100A70004D4B6C60A0FB0101C01841F1070146A37A
:100A8000D3E90023C5E90544FFF73AFBB5F86860F0
:100A900028611DF037F800F109082EB93C7804F000
:100AA0000F04631E5C425C4195F824702B693F4A39
:100AB000DFF8FCA03F4964F3000785F824704FF08D
:100AC000020917F001070BACCDF82C9037D00020AD
:100AD0001060CDE90431CDE90842CDE900030321DE
:100AE000CDE9065ACDE9020043464A461CF0D0FF44
:100AF000214609F03FFB002843D12F4A06954AF2D0
:100B0000D833CDE904020093CDE907A4CDE9020072
:100B10000190434601220321CDF82C901CF0BFFF29
:100B2000214609F027FB60BB95F86A30012043F0AD
:100B3000010385F86A300FF06DF90020E2E603F258
:100B4000471010601D48CDE904314FF0910CA6FB11
:100B500000014FF6FF73CDE90842CDE902730CFBAB
:100B600006110DA3D3E90023CDE9065AFFF7C8FA11
:100B70004346CDE900704A46032138461CF088FF01
:100B8000CEE72B6A002B3FF4BCAE05480BF09AF978
:100B9000B7E600BFAFF300808D49FD1A07000000E3
:100BA0001820002000CA9A3B8C49FD1A0C20002016
:100BB000E59B0000D9C00000B9BD0000002AE78411
:100BC00070B590F824308AB0C3F342030D46044652
:100BD00001210DF1230016468DF823301CF087FC0F
:100BE0007178024628461DF09EF81D49A0FB013190
:100BF0001C48181841F1070117A3D3E90023FFF798
:100C00007FFA216905468D4220D2481B0021164AF1
:100C100002230993A21A7423B2FBF3F2134B059338
:100C200009AE00230232CDE90110CDE903330321DF
:100C300006960093D2B218461CF04CFF314609F0DC
:100C400099FA38B9256100200AB070BDFBD9691A3C
:100C50000020DCE70C20F7E78D49FD1A07000000B3
:100C600000CA9A3B8C49FD1A18200020E59B000021
:100C70002DE9F04F06468BB08A46012002219946A5
:100C8000154611F02FFF002202218046012008F0B6
:100C90000FF830460BF004FEC71CFFB2364B00962F
:100CA0003A460121002008F037FE10F0FD0F0ED06B
:100CB000324A3349334840F6320317F0ECFE002342
:100CC00083F31188BFF36F8F0323184602DF2E4C86
:100CD000A5FB044526A3D3E9002320462946FFF7B8
:100CE0000FFA2A4B0896CDE90663294B0593336921
:100CF00004934FF6FE730393264B20F07F46A6FB2A
:100D000003310722E01A02FB061165EB01014FF4E3
:100D10007A720023FFF7F4F94FF0000BCDE9016080
:100D2000CDF800A04B463A46012158461CF0B7FECC
:100D300010F0FD0F0DD0114A1149124840F647033B
:100D400017F0A9FE8BF31188BFF36F8F03231846AA
:100D500002DFB8F1000F07D00122022110460BB0CC
:100D6000BDE8F04F07F0A4BF0BB0BDE8F08F00BFA7
:100D70008D49FD1A0700000029C80000CA3502008D
:100D80007A360200C32E020000CA9A3BC9C700008F
:100D900099F800008D49FD1A2DE9F0438468228DF1
:100DA0004FF6FF739A428DB0804600F0A780204630
:100DB0001EF00EF898F81430012B2ED0022B32D0F2
:100DC0000BBB94F88E3003F01803182B1BD1A18DA8
:100DD000B4F886218B1D9A42C4BF931F5B1AB4F8E6
:100DE0008211CCBF9BB21346994208D0A4F882313D
:100DF000B4F88231A4F88431A4F8882103E0B4F86F
:100E00008831002BF4D094F8507187B139462046D0
:100E10000DB0BDE8F0430BF02BBF0023A4F88831E0
:100E2000A4F88431EFE73D2384F85031EBE7E58DFA
:100E3000268E5DB335440023CDE90A33B8F810306F
:100E4000ADB2DBB194F93930002B14DA40460AAA6E
:100E50000BA904F1D409FFF7CBFC48461DF04BFD6C
:100E600010B9FF200BF0D2FE48461DF044FD0246AB
:100E700070B1002323860023A4F88A3198F8123039
:100E8000D90711D50023A4F88E3115E0751CD2E7DF
:100E9000D4E91E011CF014FB0028EAD194F83C3080
:100EA0005807E8D5A38DE5E7B4F88A314BB3AB42D8
:100EB00020D95B1BA4F88A31B4F88E317BB1AB42E8
:100EC0003ED95B1B9BB20022062BA4F88E312286F2
:100ED00004D994F93930934201DA26B301270DF190
:100EE0002702294620460CF089FE74302AD19DF84D
:100EF000271000E03E2120460BF0BAFE0DB0BDE801
:100F0000F083B4F88E31002BD6D1628D40F2E243EB
:100F10005A43B4F88C3142F2107101FB0323013BB8
:100F2000B3FBF2F3AFE7D4F878215308D20702D429
:100F3000C4F87831D3E743F00043C4F87831CDE703
:100F40000821D8E7B4F88831A3B1AB4203D95B1BC1
:100F5000A4F888310EE009F0ADF80146002850D021
:100F60000023A4F88831238DC3801B2303710068FC
:100F70001CF00AFEB4F8843123B1AB4243D95B1BA9
:100F8000A4F88431238E0FB99E4243D05E1CB6B2C2
:100F900094F8D13013F001013ED1DDE90A23002B92
:100FA0007DD10AB9002E77D000210D460B46228D47
:100FB0003F48D4F81C80019103320A990091CDE991
:100FC0000470CDE90256CDF81880D2B2012100207C
:100FD0001CF080FD10F0FD0F90D009F0F3F8804573
:100FE0008CD0344A344935484FF4A36317F053FD8D
:100FF000002383F31188BFF36F8F0323184602DFAA
:101000007CE70123A4E70023A4F8843120461DF0E7
:10101000BEFDB7E73E46BBE76FF3000384F8D1306F
:1010200094F93930002B2EDA94F87700012100F082
:1010300007001EF06CFDB4F86E20B4F86C30DFF8D9
:1010400080C0204D134403F2D51318440721E0FB60
:101050000C5115A3D3E900232846FFF751F8256961
:10106000DDE90A2320F07F40854235BF411B2D1A60
:10107000002500212061002B99D10A4397D1002D32
:1010800090D0194693E794F87600C0F3C00100F0C1
:1010900007001EF03AFDCEE7002F85D12EE70D4662
:1010A00085E700BFAFF300808D49FD1A07000000FF
:1010B00085C70000CA350200F2360200C32E0200C6
:1010C00000CA9A3B8C49FD1A2DE9F04F85B00446C1
:1010D000BDF844900393CDE90112BDF838A01DF08E
:1010E000E7F8A368D4F80C61A0EB0905002B834650
:1010F000ADB209DAE168626823F0004391422CBF87
:101100007618B618A360F61A638D634F13FB05F3C8
:101110009BB2B3FBFAF11AFB01F080B283421FFAD3
:1011200081F840F2E24280F09480C01A5043A0FB64
:10113000070157A3D3E90023FEF7E2FF20F07F4029
:101140000644E38DB4F814211344994494F83930DB
:10115000A9EB0B09C14440F2E24BDB09A4F82E9045
:101160000BFB0AF900F08280226CA36C02FB1533A2
:10117000A3641EF0F8FC054694F87401C0F3420025
:1011800010F0ACF8029A454B05440BFB02F22265C5
:1011900009FB05F50022C4F87C2105F57425A26C35
:1011A00005F23F25B5FBF3F54FEA590305FB08F0BF
:1011B000963B0244256463649A4294BFA264A3648C
:1011C000A0FB070132A3D3E90023FEF799FF039B9D
:1011D000361AB3FBFBF00BFB00F0A0FB07012CA3BE
:1011E000D3E90023FEF78CFFA9EB050520F07F472C
:1011F000BDF83C30A385BDF84030A4F88C31494699
:101200002046A4F82AA00CF033FDA18D244A881DA5
:101210004A44B2FBF9F293B29842A4F886313EBF39
:101220005B1A063B9BB2A4F88231019B13B10023E9
:10123000A4F88E3133462A4639462046FFF718FD7A
:1012400094F8803143F0010384F8803105B0BDE8A3
:10125000F08F0AFB113080B25043A0FB07010CA3B2
:10126000D3E90023FEF74CFF361A6AE70D4A0E4910
:101270000E4840F6BD0317F00EFC002787F31188D7
:10128000BFF36F8F0323184602DF4D46B0E700BF60
:101290008D49FD1A0700000000CA9A3B40420F002A
:1012A0007FC3C901CA350200DF410200C32E02001C
:1012B0002DE9F04F0B6891F811A0D3F80090037F4F
:1012C0001668044695B0C3F38013D0F81E008DF85D
:1012D0003F301546BAF1FF0F628C12900F4612ABE9
:1012E000ADF84C2050D010AA0DF13F0150460EF041
:1012F000F5FC9DF83F3002338DF83F30234605F171
:10130000180053F82E2B0B92E28D2A819B78AB723A
:10131000D4F82A306B60D4F83A30AB6194F83E30A0
:10132000037105211CF0E3F86B7F00F03F0060F3D0
:1013300005036B7794F83F30C3F30402AA77A28EBB
:10134000EA81012803F01F0391B205D91B3303F092
:101350001F030B2B00D8E9B90022C9F8142095F817
:1013600020300B9862F3000385F82030E5680126F1
:101370002146267108F072FE28682E7129461CF05D
:1013800003FC15B0BDE8F08F93E803001090ADF8B2
:101390004410B3E73B6800215960E38E2B82638ED3
:1013A0000C933046B5F80E801DF0C4FB94F83F2036
:1013B00096F87411520962F3430186F874111EF015
:1013C000D2FB0D9096F87401C0F342000FF086FF37
:1013D0000D9A40F2E24B0BFB08F8104408FB00F0BA
:1013E00000F57420B04A00F23F20B0FBF2F04FEA63
:1013F0005802963A6862AA6294F831200BFB02F315
:10140000AB63238FA6F88C31414630460CF030FC9C
:10141000A64BC6F89031A64B4344B3FBF8F39AB2FF
:10142000A6F88621298A881D82421346C1BFC1F5CC
:101430007F43FA33D21892B2A6F882216B68C6F8BD
:101440007831234613F81C2FC2F3401BDA070DD561
:10145000984A99499948F82317F01DFB002383F314
:101460001188BFF36F8F0323184602DF4FF4807398
:10147000A38399F826000FF07DF804F12B030028D0
:1014800000F00681626AC4F82B20228D9A80BAF19E
:10149000FF0F04F125031DBF1298BDF84C20C4F8BE
:1014A0002500002208BFC4F825209A809DF83F300F
:1014B000A3771098BDF84430C4F81F00A4F8233077
:1014C000EB8963862B8AA386B6F88C31E38696F87F
:1014D0007431C3F3420384F8383030460BF0E0F93E
:1014E000A881E080D7F804A00B98214608F0B6FD4B
:1014F000AB89AAF806301C23DAF800408AF80430D9
:10150000BBF1000F00F0C8806B7F43F040036B77A6
:10151000281D1EF07CFA0123E8838AF81C3051460E
:1015200020461CF031FB95F85B00B5F850A0B5F8EB
:101530005240012100F007001EF0E9FA834604EB57
:101540000A00DFF87CC15F4C00F2D5105844072137
:10155000E0FB04C14FF0000A31236046C6E901A355
:10156000C6F80CA04EA3D3E90023FEF7C9FD20F076
:101570007F403061F9680C9A6D6A40F2E2430120C5
:10158000A8EB050503FB02185246022107F090FB69
:1015900048460AF021FF08F2B248A8EB0B0840A326
:1015A000D3E900238346A8FB0401FEF7A9FDBB682D
:1015B0004549009120F07F483A3B0BF10202434439
:1015C000D2B20121CDF80490504608F0DFF9494627
:1015D0000EF044F999F82430DB0707D50122CDF845
:1015E00000A053461146504608F096F930460BF0DD
:1015F00057F9A5FB04542AA3D3E9002381462146C9
:101600002846FEF77DFDBB68A3F13A0A40F2D113EC
:1016100008932E4BCDE906632D4B05933369049354
:101620002C4B20F07F46A6FB03310722E81A02FB71
:10163000061164EB010109F103074FF47A724FF0D0
:1016400000090023CDF80C90FEF75AFDFFB2CDE95A
:101650000160CDF8008053463A46012148461CF00F
:101660001EFA10F0FD0F0DD0124A1B4913484FF41B
:10167000E97317F010FA89F31188BFF36F8F032312
:10168000184602DF01220221104607F011FB78E61E
:10169000C4F82B009880FAE65B463EE7AFF3008083
:1016A0008D49FD1A0700000040420F00404B4C00DE
:1016B0007FC3C901313B0200B4330200C32E0200D4
:1016C0008C49FD1A00CA9A3B5DF800002DF8000015
:1016D00099F800008D49FD1A7A36020000000000DA
:1016E0002DE9F04F8FB0DFF8D8800B900DF1370166
:1016F0000DF136001CF04FFA324F9DF836A09DF8E0
:1017000037B01CF0FFF9D8F800400A90A4FB07544A
:1017100029A3D3E90023002621462846FEF7F0FC42
:101720000B9B0693CDE90766274B05938146D8F8B6
:10173000040021A3D3E90023A0FB0701FEF7E0FC8E
:10174000224B29F07F47A7FB033120F07F4007227F
:10175000CDE9036002FB0711E81A64EB01014FF4C5
:101760007A720023FEF7CCFC0A9B0096CDE901704B
:101770005A46032150461CF092F910F0FD0416D190
:10178000134A1448002314F019FD68B19DF837205E
:101790009DF8360000942346032108F0BDF86FF051
:1017A00073000FB0BDE8F08FD8F80C00F9E76FF0C8
:1017B0008B00F6E7AFF300808D49FD1A07000000AB
:1017C0001C26002000CA9A3BE10701008D49FD1A42
:1017D000447B0B000426002038B50F4D04461CF056
:1017E00091F9A9681CF090F96968B0FBF4F404441D
:1017F0000A4807A3D3E90023A1FB0001FEF780FC00
:1018000020F07F40844294BF0020012038BD00BFFB
:101810008D49FD1A070000001C26002000CA9A3BD3
:10182000F7B5C468636805465BB193F820309A0742
:1018300007D04B48214610F047FD10F0FDFD002079
:1018400070E010F061FD002010F082FD00210846DC
:1018500010F070FD00222521082010F0B1FD414B51
:10186000019301A810F094FD3F4940F25B6010F035
:1018700031FE237AC3F3420262F306132372204639
:101880000FF0DEFE0EF036FF637A00284CD013F026
:10189000030018BF01200EF0B1FA4178821C0078D5
:1018A00010F01AFF27682E6838461EF00EF906441D
:1018B0006A6806F10901012010F080FF11F040F87C
:1018C00020460AF093FD811C3246C9B238461EF00C
:1018D0000AF9054660B3254A2549264840F21143D6
:1018E00017F0D9F824480726A5FB00011AA3D3E96D
:1018F000002306FB0511FEF703FC204902462048A1
:1019000017F0C9F8002383F31188BFF36F8F032307
:10191000184602DF1B48214610F0D6FC10F08CFD63
:101920006FF08B0003B0F0BD9B07BBD00120B2E786
:1019300020461EF0C5F8002881D00C4A12490D48F7
:1019400040F2294317F0A7F885F31188BFF36F8F92
:101950000323184602DF72E700CA9A3B000000002A
:10196000E50F0100D6BE898E555555005C3F02003B
:10197000DF410200C32E02008D49FD1AF83F02002C
:10198000CE3F02006BFB01007A3202000000000033
:101990002DE9F341C468A2894FF6FF739A420546C8
:1019A00007D17D48214610F08FFC10F045FD002046
:1019B000C7E010F065F82B89628AE08A1A4492B277
:1019C000104480B2431CE38200236382637FA282BF
:1019D000590604F1180640F1B780E18B03F03F038C
:1019E00032460DF0FFFFD4E90B23A16A134499425C
:1019F00094BF21632363D4E90D1300220B44C4E98F
:101A00000D23E26294F8722012F0040206460AD115
:101A1000D4E917011BF054FD28B994F8723043F053
:101A2000040384F8723010F06FFC002010F090FC7A
:101A3000201D10F0ADFC2389A17A40F25B6043EADF
:101A4000014110F047FD30460FF06AFA2146534835
:101A500010F03AFC962010F0A5FE94F85A2094F865
:101A60005B00C2F3C003002102F0070200F0070090
:101A700010F0FCFD204610F061F827682E6838460B
:101A80001EF023F806446A6806F10901002010F0F0
:101A900095FE804610F028FF002010F03FFF236BDA
:101AA00094F85B0003F13002A36B012100F0070002
:101AB00003EB42051EF0B9FA4544054494F85B0077
:101AC00000F00700022849D004280CBF4FF4BC7373
:101AD000282301211D441EF0AAFA284410F0F8FE24
:101AE000A18903313246C9B238461DF0FCFF0546D4
:101AF000002835D02A4A2B492B4840F24B1316F0C8
:101B0000CAFF2A480726A5FB000121A3D3E9002329
:101B100006FB0511FEF7F4FA25490246254816F0A2
:101B2000BAFF002383F31188BFF36F8F0323184696
:101B300002DF2148214610F0C7FB10F07DFC6FF05A
:101B40008B0002B0BDE8F08103F03F03A17F00935A
:101B500004F11F0033461DF038FF44E71823B8E7AF
:101B600020461DF0ADFF00283FF421AF0C4A134979
:101B70000D4840F2551316F08EFF85F31188BFF320
:101B80006F8F0323184602DF11E700BFAFF3008019
:101B900000CA9A3B00000000E50F0100811C010013
:101BA00064400200DF410200C32E02008D49FD1A8D
:101BB000B5400200CE3F02004DFB01007A32020028
:101BC00008B5034816F05AFF024B00221A6008BD00
:101BD000902902003412002070B51546CE680448E2
:101BE0001C4615F04FFB2B683360204670BD00BFCC
:101BF000AE2902002DE9FF41DFF8308004460D4692
:101C00000B48D8F800101F46164615F029FB042390
:101C1000CDE90183BDF82830009332463B46294682
:101C200020461AF006FB04B0BDE8F0812412002023
:101C3000C42902002DE9FF41DFF8308004460D463B
:101C40000B48D8F800101F46164615F009FB042370
:101C5000CDE90183BDF82830009332463B46294642
:101C600020461AF0E6FA04B0BDE8F0812812002000
:101C7000DD2902002DE9FF41DFF8308004460D46E2
:101C80000B48D8F800101F46164615F0E9FA042351
:101C9000CDE90183BDF82830009332463B46294602
:101CA00020461AF0C6FA04B0BDE8F0812C120020DC
:101CB000F42902002DE9FF41DFF8308004460D468B
:101CC0000B48D8F800101F46164615F0C9FA042331
:101CD000CDE90183BDF82830009332463B462946C2
:101CE00020461AF0A6FA04B0BDE8F08130120020B8
:101CF0000B2A02002DE9FF41DFF8308004460D4633
:101D00000B48D8F800101F46164615F0A9FA042310
:101D1000CDE90183BDF82830009332463B46294681
:101D200020461AF086FA04B0BDE8F08114120020B3
:101D3000222A02002DE9FF41DFF8308004460D46DB
:101D40000B48D8F800101F46164615F089FA0423F0
:101D5000CDE90183BDF82830009332463B46294641
:101D600020461AF066FA04B0BDE8F081181200208F
:101D7000372A02002DE9FF41DFF8308004460D4686
:101D80000B48D8F800101F46164615F069FA0423D0
:101D9000CDE90183BDF82830009332463B46294601
:101DA00020461AF046FA04B0BDE8F0811C1200206B
:101DB0004C2A02002DE9FF41DFF8308004460D4631
:101DC0000B48D8F800101F46164615F049FA0423B0
:101DD000CDE90183BDF82830009332463B462946C1
:101DE00020461AF026FA04B0BDE8F081081200205F
:101DF000612A02002DE9FF41DFF8308004460D46DC
:101E00000B48D8F800101F46164615F029FA04238F
:101E1000CDE90183BDF82830009332463B46294680
:101E200020461AF006FA04B0BDE8F0811012002036
:101E3000792A02002DE9FF41DFF8308004460D4683
:101E40000B48D8F800101F46164615F009FA04236F
:101E5000CDE90183BDF82830009332463B46294640
:101E600020461AF0E6F904B0BDE8F0810012002027
:101E7000912A020070B5CE680A481C46154615F036
:101E800001FA2246294630461FF0D9FB064B1B6853
:101E90001BB916F005FC204670BDE0211F2016F08E
:101EA000D2FBF8E7A52A020000120020012910B594
:101EB0000C4605D1054816F0E1FD054B1C6010BD30
:101EC000044816F0DBFD0024F7E700BFBA2A020041
:101ED00020120020B62A0200012910B50C4605D1B7
:101EE000054816F0CBFD054B1C6010BD044816F0EC
:101EF000C5FD0024F7E700BFBA2A02000412002043
:101F0000B62A0200012910B50C4605D1054816F085
:101F1000B5FD054B1C6010BD044816F0AFFD002454
:101F2000F7E700BFBA2A02000C120020B62A02000E
:101F300010B5044621B1BDE81040044815F090B931
:101F4000034815F09FF9034B1C6010BDC62A020020
:101F5000E62A0200341200202DE9F04F89B000F08B
:101F600013FA011E03DA4B4815F07AF9FEE700F088
:101F700063FA011E03DA484815F072F9FEE700F033
:101F8000BDFA011E03DA454815F06AF9FEE716F0BE
:101F900087FB002001F0A0FE064630B10146404814
:101FA00009B0BDE8F04F16F069BD3E4D3E4815F052
:101FB00069F90FCD03AC0FC42B68236001233B49A3
:101FC000009302223A4B03A802F074FD0146002858
:101FD0005CD0384815F044F93748DFF8E0A0384CB9
:101FE00003F0B2FB374800F053F93749374815F092
:101FF00037F90027B946002140F6CD4014F022FE03
:1020000000F08CF8CAF8000000F0A4F8304BDFF8BC
:10201000C4B0186000F0BAF82F4B304D186000F0D3
:10202000D1F82F4B186000F0DDF82E4B186000F04F
:10203000E9F82D4B186000F0EFF9206000F0F4F99A
:10204000CBF8000028680028D5D0DFF87880D8F8D1
:102050000030B34205D02549424616F076FAD8F84A
:10206000006023684B4506D021492868224616F0B7
:102070006CFAD4F80090DBF80030BB42BBD0154AB4
:102080001C4928681F4616F060FAB4E71A4815F094
:10209000F9F8A1E7F02A02001E2B02004D2B0200E6
:1020A0007F2B0200701B02009F2B0200B01E02005B
:1020B000A81E0200B52B0200800100203012002073
:1020C0001012002024120020FC2B02000C2C020015
:1020D0002C120020081200202812002034120020A8
:1020E0001C1200201812002014120020B42002003C
:1020F000241F02004C1F0200DB2B0200054B1B6853
:1021000033B11A68044801321A60196816F0B6BC77
:10211000704700BF48120020392C020007B50C4858
:1021200001AB0068A822192116F033FABDF90400AA
:102130000028B8BF0F3040F2AA73001110FB03F063
:1021400040F2FF7390FBF3F003B05DF804FB00BFB7
:102150004412002007B50C4801AB0068AA221921DF
:1021600016F017FABDF904000028B8BF0F3040F28E
:10217000AA73001110FB03F040F2FF7390FBF3F021
:1021800003B05DF804FB00BF4412002007B50C4803
:1021900001AB0068AC22192116F0FBF9BDF904006F
:1021A0000028B8BF0F3040F2AA73001110FB03F0F3
:1021B00040F2FF7390FBF3F003B05DF804FB00BF47
:1021C0004412002007B5064801AB0068E8221E2132
:1021D00016F0DFF9BDF9040003B05DF804FB00BFA1
:1021E0004412002007B5064801AB0068EA221E2110
:1021F00016F0CFF9BDF9040003B05DF804FB00BF91
:102200004412002007B5064801AB0068EC221E21ED
:1022100016F0BFF9BDF9040003B05DF804FB00BF80
:102220004412002000B589B00DF107038DF80700B6
:1022300002930A480123CDE90513039300220723E3
:102240008DF810208DF81C300222192302A9006895
:1022500016F090F909B05DF804FB00BF44120020AD
:102260001FB58DF8000009488DF801100223029374
:102270008DF80C300122192301A90068CDF804D093
:1022800016F078F905B05DF804FB00BF4412002099
:1022900070B5284B1C68002C49D1274D1860274881
:1022A000286002698168136823F0007313600B686B
:1022B000234A19219847002805DA224814F0E2FF42
:1022C0006FF0020070BD286883689E692EB91E48B1
:1022D00014F0D8FF6FF00300F4E74FF000734FF0F5
:1022E000A0721921B0470028F1DB1849184B286863
:1022F0004B604FF000738B608368DB692BB9154826
:1023000016F0BCFB6FF00400DCE7012298470028C0
:10231000F5DB40212220FFF7A3FF95213020FFF7B6
:102320009FFF7F213220FFF79BFF2046CAE74FF037
:10233000FF30C7E7481200204C120020D4180200DA
:1023400010000100422C0200672C0200381200200D
:10235000FD200000922C02001FB58DF800000948F6
:102360008DF80110022302938DF80C3001221E23F8
:1023700001A90068CDF804D016F0FCF805B05DF8AE
:1023800004FB00BF4412002010B51E4C1E4B2360FE
:1023900086B000214FF4004014F054FC01AB0393CD
:1023A0000323012220688DF8143003A970230492BE
:1023B00016F0E0F80146154816F060FB03A90F205F
:1023C000FFF730FF044638B1114814F05BFF6FF09F
:1023D0000104204606B010BD9DF80C100D4814F005
:1023E0003FFF77212020FFF73BFF08212320FFF745
:1023F00037FF80216020FFF7AFFF10216220FFF739
:10240000ABFFE6E7441200204C190200C22C020088
:10241000CB2C0200EF2C0200024B0E21186816F0A4
:10242000D1B800BF50120020024B1721186816F0D7
:10243000C9B800BF5012002010B5064C06482060F5
:102440000E2116F0D3F82068172116F0CFF80020DF
:1024500010BD00BF50120020D4180200024B0246EB
:102460001521186816F0DFB858120020024B0246FA
:102470001621186816F0D7B858120020024B0246F1
:102480000F21186816F0CFB858120020024B0246F0
:102490001821186816F0C7B858120020024B0246DF
:1024A0001321186816F0BFB858120020024B0246DC
:1024B0001C21186816F0B7B858120020024B0246CB
:1024C0000B21186816F0AFB858120020024B0246D4
:1024D0001F21186816F0A7B858120020024B0246B8
:1024E0000521186816F09FB854120020024B0246CE
:1024F0001E21186816F097B85812002038B5184CED
:10250000184D194B19482B601521206016F07DF8E5
:102510002068162116F079F820680F2116F075F85A
:102520002068182116F071F82068132116F06DF854
:1025300020681C2116F069F820680B2116F065F858
:1025400020681F2116F061F82868052116F05DF853
:1025500020681E2116F059F816F0A2F8002038BDA8
:102560005812002054120020C0180200D418020093
:10257000014B1B68184700BF5C020020014B18602C
:10258000704700BF5C02002030B585B004460D46A0
:102590001022002168461FF060F802238DF80230F7
:1025A0002A46044B01932146684614F053FF05B0B8
:1025B00030BD00BF7125000080B505460E461746A8
:1025C000984614F05DFB03461FF016F9DFF81890EB
:1025D000044649F80030424630463946A84754F888
:1025E000090000F0CBFB00BF080000002DE9F04718
:1025F000058B04462807904611D4022905F00705EB
:1026000040F0CC80204616F06EFA78B10138218B6C
:10261000042811D8DFE800F0C2106D85950001296B
:102620000CBF45F0100545F02005258388F311887F
:10263000BFF36F8FBDE8F08701F0070AAA4500F0ED
:10264000A5800027B9463E46A368002B00F0BC8059
:1026500041F00801218388F31188BFF36F8FA168CF
:10266000002900F0BA800D68002900F0B680D1F88A
:102670000480334652462046C047002D76D02B6852
:1026800029461D46F0E701F007035A1F012A1BD80F
:10269000002221F00701062B276889B2C4E9002235
:1026A00009D13B4603E0628B013262831B68002B39
:1026B000F9D141F002012183204616F014FA0028D6
:1026C0007AD041F0200176E0042B0AD121F00701F5
:1026D00089B22183204616F006FA10B141F020019C
:1026E0002183218B01F0070AAA454FD00027B94664
:1026F000AAE7236921F0070141F00601062DD3F86E
:10270000009021832DD1B9F1000F3FD041F0080195
:10271000218388F31188BFF36F8F3A492046C84759
:1027200029E021F00701236941F0040189B2042D59
:10273000D3F804902183E6D000273E464FF0040AE8
:1027400082E721F00701236941F0050189B2052DD7
:10275000D3F808902183D6D000273E464FF0050AD3
:1027600072E700273E464FF0060A6DE72B4687E7E3
:10277000B9F1000FD1D1EFF31188202383F3128830
:10278000BFF36F8F238B23F008032383258BEA0687
:102790002ED525F01003238305F007056669218BEC
:1027A000002EBFF670AF00232768C4E9003321F084
:1027B000070141F001012183218B01F0070AAA459D
:1027C0004FF000097FF440AF002F9CD041F008018A
:1027D000218388F31188BFF36F8F002FC8D03D6825
:1027E000394633465246204616F0A9F92F46F4E7FB
:1027F000AB067FF51BAF25F02003238305F007050B
:1028000000E700BF6B8B0100014B1868704700BFE9
:1028100060020020F0B5082289B016F039FCCB6ABE
:1028200003930B6B04934B6B05938B6B0693CB6BF2
:10283000079313466A460C46064600271146104683
:10284000CDE90177009716F036FB31460546304654
:1028500016F031FB216B0391616B0491A16B059123
:10286000E16B0544CDE906171046114616F023FB2F
:1028700031460544304616F01EFB0544206A0090A0
:10288000606A0190A06A0290A06B0690E06B0790CE
:102890003046CDE90477039716F00DFB0544606AD6
:1028A0000090A06AD4F838C00190E06A0290CDF898
:1028B00010C0606BD4F83CC00390CDE905C0206A1D
:1028C0000790304616F0F7FA0544E06A0090206B56
:1028D0000190606B0290206A0690A06A07903046D3
:1028E000CDE90477039716F006FC236B0093636B26
:1028F0000193A36B0293E36B0393636A0693E36A0A
:1029000007932D1A0823304616F0F5FB636B0093EE
:10291000A36B0193E36B0293236A0393636A0493AB
:10292000A36ACDE90537236B07932D1A0823304698
:1029300016F0E1FBA36B0093E36BCDE90137636A0B
:102940000393A36A0493E36A0593636B07932D1AB9
:102950000823304616F0CFFB2D1A10D40D4C35B994
:1029600008223146204616F09FFB01280FD008238D
:1029700022463146304616F0BEFB2D1AEFE7054AD7
:1029800008233146304616F096FA2D18F8D409B0CF
:10299000F0BD00BFE02002000449431E0F3013F8D1
:1029A000012F8A5C1A708342F9D170470D2D020005
:1029B000F0B5264E07460C460FCE8DB001AD0FC5C3
:1029C0000FCE0FC596E8070085E807003846002FB0
:1029D00038D0002C38D0381F2146024610344B78AE
:1029E0000D781B0443EA0563CD782B438D780431C1
:1029F00043EA05238C4242F8043FF0D1144C0421F1
:102A00008A07036916D1C3F30742A55C1A0EA25CBC
:102A100042EA0562C3F30725DBB2655DE35C42EA87
:102A2000054242EA032221F0030330336B4453F89A
:102A30002C3C534050F8042F013153402C290361A2
:102A4000DED101200DB0F0BD2046FBE7841B020063
:102A50000D2D020030BFFFF7FDBF00BF2DE9F04193
:102A60000B4EDFF8308006EB0807CC1B05463246DC
:102A7000094920461EF0E3FDA01942460021083C0A
:102A80001EF0EBFDAC6607F10800BDE8F08100BF69
:102A90000000000004000000701B0200074A936859
:102AA00093F90E10002907DB526993421FBF044AB5
:102AB000536843F080535360704700BF242B0020BD
:102AC00000ED00E0134B9A6A12F0007F9A6A14BF7F
:102AD0001E201D2012F0807F9A6A18BF1F2012F45A
:102AE000002F9A6A18BF212012F4802F9A6A18BF0B
:102AF000222012F4003F9A6A18BF232012F4803F6C
:102B00009A6A6FEA02426FEA12429A6218BF242060
:102B1000704700BF00ED00E010B5194B0246986AFF
:102B20009C6A10F4805F14BF1720162014F4006F05
:102B30009C6A18BF1820A40509D5986B986A0004F0
:102B400004D51AB19A6A22F400429A6219200C4BF9
:102B50009A6A12F4806F9A6A18BF1A20D2050CD4B0
:102B60009B6A13F4005F18BF1C20054A936A43F464
:102B70007F43936200230B7010BD1B20F5E700BF5D
:102B800000ED00E010B51C4B0246986A9C6A10F0FC
:102B9000100F14BF1120102014F0080F9C6A18BFEA
:102BA0001220A40709D5586B986A000604D51AB1FB
:102BB0009A6A22F080029A6213200F4B9A6A12F0EE
:102BC000010F9A6A18BF142012F0200F9A6A18BFDA
:102BD0001520D40658BF9B6A074B9A6A920642BFDB
:102BE0005A6A22F400525A629A6A42F0FF029A62CA
:102BF00000230B7010BD00BF00ED00E0F0B5474BA7
:102C00005B688BB00446C3F30803002585F3118885
:102C1000BFF36F8F02F07F40B0F17F4F11D102F010
:102C20000C0008280DD010074CBF0C4601250022CF
:102C3000033B8DF80720032B05D8DFE803F024625F
:102C4000665F2C46F3E700239DF80720CAB902AE61
:102C500004F1200720686168324603C20834BC4290
:102C60001646F7D1099A002D53D0C2F3080121B9B5
:102C70006FEA52226FEA4222099202A9184617F01F
:102C800061F90BB0F0BD254BDA6A9107DBD4DA6A43
:102C9000002AD8DBDA6A5200D5D55A69A16942F414
:102CA00080725A61BFF34F8FBFF36F8F5A6931F84B
:102CB000021C22F480725A61BFF34F8FBFF36F8FF3
:102CC0004DF60272914209D09A6AD2B242B10DF128
:102CD00007010120FFF756FF0346B5E72368B3E776
:102CE0009A6A12F47F4F05D00DF107010120FFF71A
:102CF00013FFF1E79B6AB3F5803FA4D3FFF7E2FE31
:102D0000EAE70DF107010020E4E70DF107010020DB
:102D1000EDE722F4FF7222F00102ADE700ED00E0E2
:102D2000044B5A6942F010025A615A6922F00802B3
:102D30005A61704700ED00E0EFF30880EFF309817E
:102D400001B57246FFF75AFF01BD00BF11F020FD2B
:102D5000202080F3118808484FF40061401880F368
:102D60000988EFF314800221084380F31488BFF32D
:102D70006F8F00F0C3F80000083D0020084B9B68EF
:102D800083420BD1EFF3058343B1064B5A6842F0FF
:102D900080525A605A6A22F400425A621EF0EFB919
:102DA000242B002000ED00E0094A93686FF00A012F
:102DB00019670849D8664B6843F080534B6000237D
:102DC00083F31188BFF36F8F9368186F704700BF4C
:102DD000242B002000ED00E0EFF31183202383F388
:102DE0001288BFF36F8F094A53699360084A4FF006
:102DF00000615160074A996E11600021DA6ED96650
:102E000082F31188BFF36F8F704700BF242B00201F
:102E100000ED00E05C1200200B498A684FF03000A2
:102E20001044EFF3098C80E8F01F74467046FFF7FA
:102E3000D3FFA64604498A6802F1300090E8F01FEB
:102E40008CF3098870470000242B00201EF0040F2B
:102E50000CBFEFF30880EFF30980816911F8021CC1
:102E60000229FFD001B517F073F801BD40B2002868
:102E700007DB044A4109012300F01F00834042F8A8
:102E80002130704700E100E040B200280CDB43092C
:102E9000064900F01F0020330122824041F8232020
:102EA000BFF34F8FBFF36F8F704700BF00E100E0AB
:102EB000054B420900F01F0053F82220012303FABA
:102EC00000F01040704700BF00E100E040B2002871
:102ED000A8BF00F1604001F10101B8BF064B4FEA05
:102EE0004111ACBF00F5614000F00F00C9B2B4BFA2
:102EF000195480F80013704714ED00E00F4A08B52C
:102F00000F4B22F07F029A60BFF34F8FBFF36F8F9A
:102F1000D3F8882022F47002C3F88820EFF31483DA
:102F200023F0040383F31488BFF36F8F12F042FF82
:102F300013F044FF00F048F812F07CFF000000009E
:102F400000ED00E042F8203C009B42F81C3C0A499E
:102F5000019B42F8183C029B42F8143C21F001010D
:102F60004FF0807342F8043C42F8081C0023203ADA
:102F70000265C366704700BFB925000000B50B4B62
:102F800098600B4B0E46816E196015462C4686F3F1
:102F900009884FF00000074B984720464FF000018A
:102FA0004FF000024FF00003034C2047242B002079
:102FB0005C1200206F9F0100B9250000014B102218
:102FC0001A61704700ED00E0044800232021C21878
:102FD0000133302B82F80013F9D1704700E100E093
:102FE00008B5EFF30583064A103B02EBC30152F824
:102FF000330049688847BDE80840FFF74FBD00BF70
:103000008819020008B5024B1B689847002008BDCC
:1030100060120020034B044A1860937843F00203C7
:1030200093707047601200206402002008B50649C2
:10303000064821F00701C1F1005202F5003215F0F7
:10304000DEFC002008BD00BFBC5E00206412002032
:10305000044A0123C2F840354FF080420020C2F8F4
:103060007835704700E0014020B1034B800143F008
:1030700001031847704700BF101C020008B5044840
:103080001DF0CDFC00280CBF6FF01200002008BD21
:10309000E81802002DE9F0414FF0FF3206460D46D8
:1030A0004FF0FF3300210F2000F016FA012700F146
:1030B0000C0804460776022140461DF07EF80F23D7
:1030C00004210370417040461DF077F8054B4770AE
:1030D000468005702146D3F86C01BDE8F04100F050
:1030E0006FBC00BF00000020F8B55D4EBFF35B8FE2
:1030F0003468BFF35B8F14F0010454D0594F5A4C1D
:103100005A4D5B483A46214615F02BFE00283FD029
:103110002022294620461EF059F90028F1D0002728
:103120004FF0FF324FF0FF33012000F0C5F900F1FE
:103130000C050221044628461DF03FF83E2303708B
:1031400042234370012128461DF037F808230370FD
:10315000412128461DF031F8054600F8017BCFB12A
:10316000402200211EF079FABFF35B8F56E8003F42
:1031700023F0010346E80032002AF7D1BFF35B8F4A
:1031800021463C4BD3F86C01BDE8F84000F018BC78
:103190001F27C5E7364916F05AFF203105F12100F7
:1031A00016F055FFE0E7BFF35B8F3368BFF35B8F2B
:1031B0009B0753D5BFF35B8F2A4935682C48BFF373
:1031C0005B8F16F08AFC002834DA6FF004044FF0AD
:1031D000FF324FF0FF33012000F06EF900F10C07D1
:1031E0000221054638461CF0E8FF3E2303702223E7
:1031F0004370012138461CF0E0FF092303702121B0
:1032000038461CF0DAFF0346013014B31F221A704F
:10321000FF2120221EF021FABFF35B8F56E8003F0A
:1032200023F0020346E80032002AF7D1BFF35B8F98
:103230002946A6E70C490D480A4B15F0040F01F189
:10324000200218BF0146104615F0DAFD0028BCD058
:10325000BDE707491C7016F0FAFEDDE7F8BD00BFB8
:1032600070120020902102008E2B0020272E0200D9
:10327000AE2B00200000002070B5214CBFF35B8F07
:103280002368BFF35B8FDA0706460D4601D50C2095
:1032900070BD012931D8BFF35B8F54E8003F43F084
:1032A000020244E800210029F7D1BFF35B8F9B079E
:1032B000EDD41448314616F0CAFE134806F1200139
:1032C00016F0C5FEBFF35B8F75B154E8003F43F0C5
:1032D000040344E80032002AF7D1BFF35B8F0B48A8
:1032E00000F0A8F80020D3E754E8003F23F00403DF
:1032F00044E80032002AF0D0F6E71220C8E700BF09
:1033000070120020AE2B0020CE2B00207402002073
:1033100070B5067E044676B9C3681D8842F226025F
:10332000954246D010D842F20102954250D042F266
:1033300025039D4214D02B4BD3F86C0183682146A2
:103340009B68BDE87040184742F25E039D42F2D18F
:1033500003210C301CF050FFE06890F840102EE084
:1033600003210C301CF048FF20460FF08BFDBFF30B
:103370005B8F1D4B1A68BFF35B8F920707D50C2636
:10338000314642F22500FFF785FE002070BDBFF3F5
:103390005B8F53E8002F42F0010143E80010002842
:1033A000F7D1BFF35B8FD307E9D4104800F042F8A0
:1033B000E6E703210C301CF01FFFE0683146FFF701
:1033C0005BFF064620460FF05DFD31462846DAE7F2
:1033D000DA7802F07F02DA701A7922F001021A71AB
:1033E000A9E700BF00000020701200207402002036
:1033F00030B50A4D0A4B85B0002428460293039449
:103400001DF077FD02AB0093284606490A234FF4CE
:10341000A36213F08FF8204605B030BDB808002035
:10342000472E0200D02D00200146014813F0C0B8FD
:10343000B8080020014601481DF030BDB808002042
:103440000378012B30B513D0022B27D07BB9194B51
:103450000A4603F1100453F8045B42F8045BA342EC
:10346000F9D11B78137043884B731B0A8B7330BDE3
:10347000104B0A4603F1100453F8045B42F8045B56
:10348000A342F9D11B78137043684B73C3F307222F
:103490001B0CCB731B0A8A730B74E8E700F1100353
:1034A00050F8042B41F8042B9842F9D103780B70A3
:1034B000DDE700BF502E020038B5054605481CF078
:1034C0000CFE044620B101210C301CF06BFE257669
:1034D000204638BD30080020132810B50CD10A480A
:1034E0001CF0FBFD044628B101210C301CF05AFEF3
:1034F00001232376204610BD09B10448F0E7BDE85A
:1035000010400120FFF7D8BF88080020AC0700203A
:10351000F8B506460F4602F057F9044640B18378E5
:10352000012B24D0132117F044FD204601F028FE82
:103530003946304605F0C0FA054628BB39463046C4
:1035400004F03EF9144B1B6823B31C6804B10C3C17
:1035500053F8043C13B1394630469847D4B123465A
:10356000E4689B68A4B10C3C002BF4D1F7E700237E
:10357000D0F8A050C0F8A030132117F01AFD204653
:1035800001F0FEFD002DD3D0284619F06EFED5E7E0
:10359000002BE0D1F8BD00BFD812002070B5C6687E
:1035A0003378B6F8014083B90F21204601F0A2FE1E
:1035B000F378054650B90A4A118831B96FEA0450C8
:1035C0006FEA10501080074A137070BD0373012119
:1035D00001F010FE2846BDE8704001F0D1BD00BFEB
:1035E0005C2B0020EE2B002010B5084C0146062273
:1035F00094F86F0002F002F938B994F86F000449AA
:10360000BDE81040052202F0F9B810BD000000200E
:103610000D2E020010B5012104460C301CF0F4FD03
:103620002146034A0078BDE81040002316F07BBE17
:103630001823020010B5012104460C301CF0E4FDF3
:103640002146034A0078BDE810400A2316F06BBEFD
:10365000C822020070B530481CF05AFD044600280C
:1036600058D0037E012B32D0032B02D1038A032BC7
:1036700002D80FF007FC20E004210C301CF0C4FD40
:10368000FF22438806886276228AC6F30B009A429C
:10369000A08301D02046ECE70F2101F02BFE054668
:1036A0000028F7D001F052FE320B60762146284602
:1036B00017F0DAFB284601F063FD184BD3F84C31C4
:1036C00043B3BDE87040164916481DF0E7BB038AB6
:1036D000012BCED902210C301CF096FD0546007856
:1036E00016F0ACFD10F002060DD10F4A0F4910483C
:1036F00040F6D73315F0CFF986F31188BFF36F8FFB
:103700000323184602DF0B4A28780623214616F0C9
:103710000AFEBFE770BD00BF4C0100200000002082
:103720009402002050090020612E0200952E020014
:10373000C32E0200982202002DE9F0478846164663
:103740008246002878D0BFF35B8FDFF8F09000232B
:1037500059E8004F49E80032002AF9D1BFF35B8FE6
:10376000002C69D020460FF0DFFA354D0C2303FB07
:10377000005027464388534511D0BFF35B8F59E86B
:10378000003F49E80072002AF9D1BFF35B8F002B9C
:1037900052D01F463846BDE8F0470FF073BBA64233
:1037A0000ED020461CF094FC04F10C090121217676
:1037B00048461CF0F7FC328AF16848461CF003FDCD
:1037C00020460FF0B1FA0C2606FB00504368ABB15F
:1037D000B8F1000F12D120460FF0A6FA06FB0050F8
:1037E00001214268D2E90003127A03F01F06B140BA
:1037F0005B09DAB100EB830016F032FD20460FF0D2
:1038000093FA0C2606FB00508368002BC2D020469A
:103810000FF08AFA704305F8008020460FF084FA12
:1038200006FB0055A86812F0A5FCB3E7C94300EBFE
:10383000830016F08FFDE1E7BDE8F0874801002026
:103840007412002010B5C1E900239DF808300B72F6
:103850000C460FF069FA034B0C2202FB00335C604C
:1038600010BD00BF741200202DE9F0474FF0FF3269
:1038700006464FF0FF33184888461CF02EFC0446DD
:1038800038B300F10C0701214FF0000938461CF055
:1038900089FC84F8189020460FF046FA0F4D4FF03F
:1038A0000C0A0AFB0050468020460FF03DFA0AFB46
:1038B0000050C0F8089020460FF036FA0AFB005579
:1038C00003213846C5F804901CF077FC068080F888
:1038D00002802046BDE8F087040800207412002012
:1038E00037B504460D468DF80700A0B929B10B493C
:1038F000072228461DF06AFD40B909490DF107026B
:10390000002005F04FF8002003B030BD29462046C6
:10391000FFF7FEFDF7E76FF01500F5E7142E020044
:103920007FA2010029289ABF014B185C092070472B
:10393000782F02002DE9F843044600F10C063046CA
:103940001CF072FCB4F81080B8F1010F054604D8E1
:103950002046BDE8F8430FF095BA304602211CF02E
:1039600053FC0746007816F069FC10F00109064682
:103970000DD10F4A0F49104840F6FE7315F08BF831
:1039800089F31188BFF36F8F0323184602DF0523E5
:103990000A4A3878214616F0C6FCB307D8D56369C1
:1039A000A4F8108013FA85F5E560BDE8F88300BF40
:1039B000612E0200E02E0200C32E020070220200DF
:1039C00038B50C4613F080F8237E012B0AD0032B68
:1039D00019D121460F481CF086FB0F490F481DF0F6
:1039E0005DFA0BE0E368187816F028FCC20705467C
:1039F00002D52046FFF79EFFAB07EAD4002413F060
:103A000077F8204638BD20460FF03CFA6FF01504D9
:103A1000F5E700BF4C01002094020020500900206F
:103A20000148042116F01CBCD4000020044BBFF355
:103A30005B8F1868BFF35B8FC0F38000704700BFD7
:103A4000D400002000487047292C0200014812F0E1
:103A50006BBD00BF8402002038B505460C4619B97D
:103A6000FFF702FF0446A8B140F635439D4209D155
:103A70002046FFF74DFC054650B120460FF002FAF4
:103A8000284638BD054821461CF058FBFFF7DEFFED
:103A90000025F5E76FF06805F2E700BF540100204C
:103AA00038B502460B46244DD5F8541109B900200B
:103AB00038BD05F5987012F081FB0028F7D100227F
:103AC000002305F5AA701CF00CFB044668B91B4ADC
:103AD0001B491C4840F6E63314F0DDFF84F31188DF
:103AE000BFF36F8F0323184602DFD5F8480120B1DA
:103AF0000FF0C8F90023C5F8483120461CF020FB20
:103B0000C5F848012046FFF703FC98B10E4812F0B3
:103B100031FB20460FF008F90C4B0C2202FB003061
:103B20001F2140882246FFF707FE20460FF0AAF922
:103B3000FFF78CFF0120BBE700000020612E020090
:103B400069360200C32E02003001002074120020EA
:103B50002DE9F04F064687B015460C4631B9FFF700
:103B600083FE044648B96FF068007BE0887A0FF066
:103B7000D3F8484B834240F08680012200216846FA
:103B80001DF0F3F820460FF0CFF8DFF80C910C236E
:103B900003FB0090C0F808D020461CF0D1FA014683
:103BA0003E481CF0CBFAFFF751FF1DF025FE3C4BC1
:103BB0001A583C4B9A4222D1DFF8ECA0DFF8ECB067
:103BC00036481DF0CEF8002180464FF4A020FFF7C4
:103BD00067FF074688B940F2A71352465946344852
:103BE00014F059FF3348314614F055FF87F311881C
:103BF000BFF36F8F0323184602DF4445E0D14FF433
:103C0000A0220023684612F0D9FA074698B140F284
:103C1000AD13254A2849264814F03DFF27483A4667
:103C2000314614F038FF002383F31188BFF36F8F00
:103C30000323184602DF20460FF076F80C23584382
:103C400019F80060BEB12046093E0FF01BF9092E9D
:103C50000ED8DFE806F01B0D0D0A050D0D0D0D1831
:103C60006FF00B0007B0BDE8F08F6FF00C00F9E7C4
:103C70006FF00400F6E715B12C600020F2E7204653
:103C80000FF000F9F9E76FF01500EBE76FF06E0049
:103C9000E8E700BF0408002074120020540100204F
:103CA00008000000D0100020612E0200F92E020052
:103CB000C32E0200012F0200212F02002A2F020032
:103CC00010B5FCF799FB034B1B6813B1BDE810401E
:103CD000184710BD8C12002073B5254D0646D5F847
:103CE0006C011CF09CFE00283BD06FF0020105F136
:103CF000D40016F02FFB012116F0B2FA10EA0104ED
:103D000032D11C4B1E600A4605F598701DF02DF847
:103D100005F5AA701CF0E5FF17481DF0EAF81749F1
:103D2000154800946FF007034FF4966212F002FCFE
:103D3000134911481DF038F9D5F86C011149836811
:103D40001B689847044648B926B902B0BDE87040E0
:103D5000FCF752BB05F1C40012F0E6FB204602B0AE
:103D600070BD6FF01204F9E76FF07704F6E700BF5B
:103D7000000000208C12002050090020E8320020B2
:103D80006F2F0200C1390000F7B5144B93F99B3037
:103D9000002B05460C461DDA14B9204603B0F0BDD1
:103DA000082C01AA4FF0000142F21800264628BF55
:103DB0000826FFF7CDFE0028F0D1019FF9683246B2
:103DC000013128461DF03BFC38460FF05BF83544C6
:103DD000A41BE1E76FF08500E0E700BF00000020D2
:103DE0002DE9F0437C4BB0F80180198848F470420B
:103DF00091424FF0000608BF1E80054608BF774B72
:103E000089B008BF1E7800F0FDF9EB78012B08BFE0
:103E1000734B05F1040420460CBF93F86F70002724
:103E200016F09AF92146B0B106A816F08AF9D5F82D
:103E30001130CDF81130B5F81530ADF815304FF020
:103E40000109EB78012B1DD01321404616F0CDFC63
:103E500009B0BDE8F083384616F022FE034600683C
:103E600006909A889B796868ADF81C208DF81E3002
:103E7000A288A37995F804900490ADF814208DF8E9
:103E80001630DEE706A8FFF7AFFBEB78012B044600
:103E90000AD100F0D9FC6FF080010746103016F00F
:103EA00059FA384616F083FF002CCDD02346B5F8DA
:103EB000012023F8702B06989DF81E20BDF81C10D9
:103EC00020679A719980B5F81730A4F88630B5F854
:103ED0001930A4F88C30B5F81B30A4F88E30EB788C
:103EE000E3700022012B227324D18DF81090BDF8CD
:103EF00014209DF816300498A4F87B2084F87D30B7
:103F0000C4F8770000F0A0FC237A354AC3EBC30362
:103F10009918D358C4F87E308B88A4F882308B79F6
:103F200084F88430D2E9381303F03F03194301D0F9
:103F300000F02EFE0721204601F05CF926B1267321
:103F40000121204601F056F9204617F029F8637B3D
:103F5000072B3DD1BFF35B8F6368214EBFF35B8FAF
:103F600013F4805F18D1E3781BB196F8D8301907A5
:103F700012D5022142F21600FFF776FC054658B131
:103F800002210C301CF019F92388038000222946F5
:103F900042F21600FFF7DCFD96F8D930DA0706D5B5
:103FA0000021022300911A46204616F057FC96F88D
:103FB000D8309B060CD50DF10E0103A816F0FDFBC1
:103FC00030B9BDF80E20BDF80C10204616F028FCC4
:103FD000204601F0D5F83BE75C2B0020EE2B0020BB
:103FE0000000002000B5C3681A7889B032B13C2ABD
:103FF00032D109B05DF804EB16F0B8B98DF80020A5
:10400000B3F80120ADF80120DA788DF80320B3F879
:104010000B20ADF81720B3F80D20ADF81920B3F838
:104020000F20ADF81B205A7C8DF81D205868019098
:104030001A899B7A8DF80A30094BADF8082068463A
:104040001A689B88CDF80B20ADF80F30CDF8112001
:10405000ADF81530FFF7C4FE09B05DF804FB00BFF2
:10406000212E020038B5032104460C301CF0CCF898
:10407000E3680578B0F80100197840F635439842B6
:104080000AD02246FFF758FB35B1044812F072F807
:10409000BDE83840FFF7DABC38BD00BF3001002072
:1040A00038B5042104460C301CF0AEF84578017890
:1040B00040882246FFF740FB35B1044812F05AF819
:1040C000BDE83840FFF7C2BC38BD00BF300100205A
:1040D00070B54FF0FF320D464FF0FF33002106461A
:1040E000FFF7FAF9044660B90A4A0B490B48132353
:1040F00014F0D1FC84F31188BFF36F8F03231846AB
:1041000002DF022104F10C001CF057F80670457024
:10411000204670BDA22F020069360200C32E0200A5
:10412000F8B50A4DEF7906460024E3B29F4202D863
:104130006FF0010007E02946304616F0F3FB073523
:10414000631C08B12046F8BD1C46EEE700000020C5
:1041500037B504460D4671B11249284616F0E2FB08
:1041600048B91148C4EBC4042946204416F0E2FBC8
:10417000002003B030BD684615F0D5FF0028F8D107
:104180006846FFF7CDFF0028F5DA074BC4EBC40003
:104190001844694616F0CEFB002DE9D001462846AA
:1041A000E4E700BF142E02000000002070B5144E9A
:1041B0000622314604461DF009F9D8B1062142F223
:1041C0000500FFF751FB0546B0B1062221460C3031
:1041D0001BF0F9FF0022294642F20500FFF7B8FC68
:1041E00048B93346226843F86929A288B28001227F
:1041F00083F86820002070BD6FF06800FBE700BF07
:10420000690000200A4BBFF35B8F53E8002F22F4B4
:10421000004143E800100028F7D1BFF35B8F13047F
:1042200004D504490022022004F0DEBB704700BF21
:10423000D4000020FFAA010007B50023CDE9000348
:1042400004496A46022004F0CFFB019803B05DF8F0
:1042500004FB00BF19AA0100F7B5054670B1464C32
:1042600094F8222194F823310AB19A4208D20133FA
:1042700084F823312B7A43F004032B7203B0F0BD92
:1042800000210222084601F0B9FA0646A8B1BFF3A0
:104290005B8FD43454E8003F43F4004344E80032D9
:1042A000002AF7D1BFF35B8F2B7A43F001032B7207
:1042B00003B0BDE8F04000F063BF01462F4800F0B6
:1042C000BDFA94F82331B3B994F8232194F822313C
:1042D0009A421FD10022114642F22900FFF738FC12
:1042E00070B994F82331013384F823312B7A43F0E9
:1042F00004032B7204E0304616F05FFB0028E3D085
:10430000012016F05AFB1E48002103B0BDE8F04022
:1043100000F094BA2A466F1C12F82A0B394616F0A0
:1043200010FB06460028EBD194F82331013384F8C2
:1043300023312B7A43F004032B7294F8A7305B07E8
:10434000DED53946684616F0F5FA0123082142F217
:104350004E008DF80730FFF787FA04460028CFD0CB
:10436000694608220C301BF02EFF3246214642F2ED
:104370004E00FFF7EDFBC3E7000000206FAA01002D
:10438000EBA901002DE9F041054660B33C4C94F8DF
:10439000222194F82331F2B1013293421CDC002136
:1043A0000222084601F02AFA0646F0B1BFF35B8FFD
:1043B000D43454E8003F43F4004344E80032002A78
:1043C000F7D1BFF35B8F2B7A43F002032B72BDE86A
:1043D000F04100F0D5BE13B1013B84F823312B7AB4
:1043E00023F004032B72BDE8F0810146254800F05C
:1043F00025FA304616F0E1FA074688B994F82331D9
:1044000094F822219A4217D2013B84F823312B7A67
:104410001D4923F0040302462B72022004F0E4FA43
:1044200094F8233113B1012016F0C7FABDE8F0412A
:104430001648002100F002BA072142F22800FFF7D7
:1044400013FA05F1010806460028E9D007210C30CF
:104450001BF0B3FE414616F06DFA3A46314642F281
:104460002800FFF775FB0028DAD194F82331013BCF
:1044700084F823312B7A23F004032B72D0E700BF9A
:10448000000000206FAA0100A5A90100EBA901000E
:1044900070B5044611B16FF0150070BD80B11C49B4
:1044A00016F040FA60B92046FFF73AFE002829DAF4
:1044B0002378012BEFD1A37903F0C003C02BEAD1FD
:1044C000144DEB79012B20D0BFF35B8FD5F8D4309E
:1044D000BFF35B8FDB0707D4002CDCD00C492046F0
:1044E00016F020FA0028D6D1EE792146731C30460A
:1044F000EB71FFF72DFE08B93046CEE7EB79013BB3
:10450000EB71CAE76FF07700C7E76FF00B00C4E705
:10451000142E0200000000202DE9F3410446D8B11A
:1045200001AA002141F20900FFF712FB054698B9E4
:10453000019E1249D6F80C8008F101070622384680
:104540001CF044FF28B10E49062238461CF03EFFFD
:1045500030B930460EF096FC002002B0BDE8F08184
:10456000D8F80130C4F80130BB88A4F805303046D3
:1045700025700EF087FC0120EFE700BF212E02001E
:104580001B2E020007B56846FFF7C6FF044BD87123
:1045900018B169460020FFF7DBFD03B05DF804FBAE
:1045A00000000020F0B5294DEE7989B0002E46D1EB
:1045B00095F8C230DB0722D56A4631464FF60940EE
:1045C000FFF7C6FAD8B9DDF800C0DCF80C40637814
:1045D000012B1E4628BF012673B1A31C02AA123468
:1045E00018685968174603C70833A3423A46F7D1FB
:1045F000186838609B88BB8060460EF043FCEE7103
:10460000002416260127EB79E0B2834202D8B3B129
:10461000002012E008AB06FB0033694653F8182C63
:1046200033F8143CCDF80120ADF805308DF800705A
:10463000FFF78EFD01340028E5D009B0F0BD002160
:10464000084609B0BDE8F040FFF722BF0000002097
:104650002DE9F04190460E461D460246002852D0F4
:10466000002B50D03103047807D573074BD416F0D4
:104670002BFA88BB01232B702DE0F7072ED5234F93
:10468000B8F1000F13D0B0060AD4C4EBC403FB5C2E
:10469000012B11D02B70B2061DD543F00203EAE7BF
:1046A00097F8D8305906F0D46FF0850014E0C4EBC9
:1046B000C403FB5C012BDED1072101FB0471013136
:1046C000104616F0F9F938B9C4EBC4043B5D2B7001
:1046D000B8F1000FDFD10020BDE8F08173070ED5DF
:1046E0000A4EC4EBC407F35D012BC4D1072111FBB3
:1046F0000431314416F0E0F9F35D2B70ECE716F06D
:10470000E3F90123F9E76FF01500E5E70000002069
:1047100010B50A4CE3790BB1002010BDFFF732FF52
:104720000028FAD1E379002BF6D1FFF73BFF0028F0
:10473000F3D1601CBDE81040FFF738BD0000002039
:10474000F8B545686905064635D4046914B115F015
:10475000010330D0194F3078FB7983422BD9C0EB5D
:10476000C0001749072238441CF030FEA8B115F0EC
:10477000010306D197F87020082A02D8B2689F2A50
:1047800019D915F0300F09D0ACB1EA060AD405F4F6
:104790006035B5F5603018BF0120F8BDEB0601D4D7
:1047A000002CF4D1D6E902239A4204D81F2A02D958
:1047B000B3F5804FEBD90020EFE700BF00000020E9
:1047C000142E020008B50449072209301CF0FEFD32
:1047D000003818BF012008BD142E0200F8B5154B93
:1047E000067883F86F6004460D46FFF7EBFF70B95B
:1047F0001149304600F0BCFF044610B96FF00B00C1
:10480000F8BD052100F0F6FC2C600020F8E704F16B
:1048100009073946304616F05AFC40B92078394627
:1048200000F0A6FF04460028E8D00621EAE76FF072
:104830001500E5E7000000200D2E020003460148A8
:10484000184700BF180000200048704718000020DB
:104850002DE9F04FD1F810908DB09A460023B9EBB6
:10486000030605469048059218BF0126079316F0E7
:1048700065F90C46410740F10C812046FFF760FFC7
:1048800028B96FF0150B58460DB0BDE8F08F2046E3
:1048900016F031F980460028F3D005F110073846AC
:1048A00016F04CF90206C0F3C01300F1F580CDE913
:1048B0000933CDF82B30A3686068ADF82030E36889
:1048C000ADF8223016F02BF96FF400518DF82D0061
:1048D000754816F039F9754A23782B7082F86F30D5
:1048E00061680DF1250332462846FFF7B1FE834685
:1048F0000028C8D105F10903B9F1000F18D02169CA
:104900000868C5F8090088889880897999712046D7
:1049100016F016FA63680646D8071BD49A0503D426
:10492000169B0BB9022E56D102238DF8243023E0BA
:104930005F4A1168C5F809109188927999809A7137
:10494000204616F0FDF96368D9070646E6D58DF8CE
:10495000249011E013F0100F0CBF012304238DF8F5
:10496000243023691968CDF826109988ADF82A10EB
:104970009B798DF82C30D8460F2142F20600FEF7C5
:1049800073FF8346002800F08A800F2208A90C30AC
:104990001BF019FC0022594642F20600FFF7D8F836
:1049A00000287FD1B9F1000F1BD06368DB0726D444
:1049B0002846012116F0D4F9079D8346002860D0CF
:1049C000002D3FF460AF2846002100F013FC28467C
:1049D00000F0D6FB57E70323DDF858808DF824302C
:1049E000CAE7179B0093CDE90186169B05995246AD
:1049F000284616F02EF983460028D6D043E707A9AB
:104A00002846FFF7EBFE83460028D1D010F10C0FAB
:104A10007FF439AFB9F1000F7FF435AF63689807C1
:104A20003FF531AF626882F00202C2F3400B0BF037
:104A300001020E21384616F0F5F8731E5A425A410B
:104A40000821384616F0EEF8B11E4A424A4138466F
:104A5000092116F0E7F862680A2102F001023846DF
:104A600016F0E0F842460B21384616F0DBF8626893
:104A70000D21C2F38002384616F0D4F84FF0000B37
:104A800001E715B1284600F07BFBB9F1000FCED14C
:104A9000C8E76FF00A0BF6E66FF0770BF3E66FF0FE
:104AA000680BF0E68346EEE6D4000020000000200C
:104AB000142E020073B51546069A0C46CDE9003255
:104AC0002B460A4601461148FFF7C2FE214606461C
:104AD000002340F201109D4202D1304602B070BD69
:104AE0000A88824204D14A6812B11278D20702D4ED
:104AF00001330831EFE7064906481CF000FA4FF48D
:104B000070220023034811F0B1FDE6E718000020F1
:104B1000B5AD01003000002010B5194816F047F976
:104B200018486FF4804116F00FF8164816F006F892
:104B300003461A06C0F3C01021D5124815F0FEFF37
:104B4000430513D50E48FFF73DFE0F490346087E87
:104B500093B90E49052200F051FE044630B1002100
:104B6000017300F047FB204600F00AFBBDE810404F
:104B70000348002116F0F4B806222131EBE710BDFE
:104B80001800002028000020000000200D2E020048
:104B900073B53248314C15F0D1FF10F4804F5AD024
:104BA000204615F0CBFF030655D4204615F0C6FF6E
:104BB000460550D501A9A4F11000FFF70FFE00280B
:104BC00049D1A4F11000FFF7FDFD0246204615F083
:104BD000B5FFC0F38031204615F0B0FF81F0010130
:104BE00045054FEA41011D4848BF41F0010115F05C
:104BF000A5FF800448BF41F0040119480DF10303EB
:104C0000FFF726FD054630BB1548012116F0A8F830
:104C1000019E28B9304602B0BDE8704000F0B0BA3D
:104C20002946304600F0E6FA6FF480410B4815F053
:104C30008BFF0546304600F0A3FA6B040BD5BFF39B
:104C40005B8F54E8003F43F4804344E80032002A7D
:104C5000F7D1BFF35B8F02B070BD00BF280000200A
:104C60001800002008B5044940221CF0AFFBB0FA40
:104C700080F0400908BD00BFD82F020070B5314B4D
:104C800093F8A23003F00603062B52D1002853D02C
:104C90002D4E326832B1131F834250D05B680BB186
:104CA000043BF9E742607268031D336002B9736028
:104CB000264CBFF35B8F54E8002F42F0200344E8FA
:104CC00000310029F7D1BFF35B8F12F0200202D030
:104CD0000025284670BDBFF35B8F54E8003F23F0EA
:104CE000100344E800310029F7D1BFF35B8F114670
:104CF00042F22500FEF72CFF05460028E8D0BFF35E
:104D00005B8F54E8003F23F0200344E80032002A80
:104D1000F7D1BFF35B8F34683CB154F8043C043CDA
:104D20000BB1002098476468F6E70023C6E900331A
:104D3000CFE76FF08505CCE76FF01505C9E76FF099
:104D40007705C6E70000002094120020D400002060
:104D5000054BBFF35B8F1B680448BFF35B8F13F0F9
:104D6000100F08BF00207047D4000020EF2B002058
:104D700070B5204E33688B42044635D013B16FF0C6
:104D80000F0070BD1C4BBFF35B8F1A68BFF35B8FC6
:104D90009206F4D4BFF35B8F1B68BFF35B8FDB0617
:104DA00025D5316042F226004021FEF75DFD054623
:104DB000B8B140210C301BF000FA234604F1400248
:104DC00053F8041B40F8041B9342F9D100222946F2
:104DD00042F22600FEF7BCFE0028D2D0002333604A
:104DE000CFE76FF06800F9E76FF07700C9E76FF081
:104DF0007C00C6E790120020D4000020F8B51D4BBF
:104E0000C568BFF35B8F53E8002F22F0200243E810
:104E100000210029F7D1BFF35B8F2A78AAB9164980
:104E20006A1C05F1410052F8044B41F8044B8242E0
:104E3000F9D1BFF35B8F53E8001F41F0100143E845
:104E40000012002AF7D1BFF35B8F0C4E34686CB1AF
:104E5000094F043C23682BB12A78002A0CBF38463E
:104E60000020984764680CB1043CF3E70023C6E9CE
:104E70000033F8BDD4000020EF2B00209412002056
:104E800005490B6833B1C26800200860117801B988
:104E9000501C1847704700BF9012002070B50C4B93
:104EA0001C68054644B154F81C3C1C3C13B1297BDA
:104EB00028469847E469F5E7064C074EB44200D30C
:104EC00070BD236813B1297B284698472034F5E745
:104ED000D01200202C1B02002C1B020010B504462F
:104EE0000DF022FF044901EB0011204615F05DF999
:104EF000BDE81040FEF7AABD9C12002070B5D1E9B4
:104F0000015600220446C1E9012206481BF014FFA5
:104F10003DB1314620462B466FF06D02BDE8704032
:104F2000184770BD3C07002070B5002205460E46AC
:104F30000948002300210DF019FF044658B10DF077
:104F4000F3FE064B324603EB001329462046BDE82C
:104F5000704015F005B970BDD80700209C120020E4
:104F60002DE9F843DFF85480044620270025EFF3AD
:104F7000118387F31288BFF36F8FE16929B983F337
:104F80001188BFF36F8FBDE8F883206A0A68E26179
:104F9000814208BF226283F31188BFF36F8FD1E98A
:104FA00001694046C1E901551BF0C6FE1EB1002251
:104FB00049462046B047FEF749FDD8E73C070020A8
:104FC00010B504461CF018FC0A4B1A580A4B9A42BA
:104FD0008AB005D120460AB0BDE81040FFF7C0BF37
:104FE0002434204611F0A0FA694620461BF066FFE3
:104FF0000AB010BD08000000D01000200448B0F82E
:105000000431002B00F5847008BF0020704700BFFA
:105010000000002038B5002204468A4202D1002454
:10502000204638BD04F1C8030120BFF35B8F53E86D
:10503000005F002D04D143E8000CBCF1000FF6D155
:10504000BFF35B8F02D0D0340244E6E7002CE6D0F9
:10505000C822002120461CF000FB04F14000044956
:105060001BF04DFF034904F124001BF0FBFED7E7C2
:10507000AD58000051AE010038B50121044600F1E1
:10508000BC03BFF35B8F53E8002F43E80015002DEE
:10509000F9D1BFF35B8F32B915F044FF044804F136
:1050A000B80115F089FEBDE83840FEF7CFBC00BF5F
:1050B0002401002070B52F4DD5F8244114B90026E5
:1050C000304670BD2C4B5A8B22B1B5F804312BB948
:1050D0009B68FFDE1B68002BF1D0F6E7D5F8103196
:1050E000002BECD0254B1B68002BE8D054F8143C67
:1050F000002BE4D054F8103C002BE0D054F80C3CCA
:10510000002BDCD014F8AB2C072AA4F1B8060ED182
:105110003046984758B1BFF35B8FA368BFF35B8FEE
:10512000022B04DC3046BDE8704015F0FBBED5F81C
:10513000243143B1D5F828111A68C5F824218B42CF
:1051400008BFC5F82821231D0022BFF35B8F53E859
:10515000001F43E800200028F9D1BFF35B8F3046E1
:1051600054F80C3C98470028AAD03046FFF784FF3B
:10517000A6E700BF00000020D80700203C07002061
:10518000F7B5C83010F8C66C10F8C55CBFF35B8F7C
:1051900050E8003F5A1E40E800210029F8D1BFF333
:1051A0005B8F0193BFF35B8F019BBFF35B8F012B81
:1051B00013D10D4B1C6834B154F8143C1C3C03B1A2
:1051C0009847E469F7E7094C094FBC4207D3012E21
:1051D00003D1012D01D1FFF7DBFC03B0F0BDA368C3
:1051E00003B198472034F0E7D01200202C1B0200B6
:1051F0002C1B020070B5457B8D42044675D041736F
:1052000025B98378082B01D015F08CFE637B012B28
:1052100017D1364D05F584766169002965D0A269FC
:105220000B686361914208BFA3612046FFF766FEE9
:10523000B5F80431002B14BF3046002010F09AFF5F
:10524000EAE7072B09D0002B4FD1A378042B20D1FC
:105250002046BDE87040FFF793BFA378042B44D0ED
:105260002348002111F0AEFF0023C4E90D33E37899
:10527000012B3AD1A378012B04BF032384F8943087
:1052800004F140004FF42032BDE87040002311F0DB
:10529000B9B9082D29D801A353F825F0EB52000025
:1052A000C1520000DD520000DD52000051520000EA
:1052B00051520000DD520000EB520000EB520000A2
:1052C0002046FFF77DFE204615F0C5FD04F14000A5
:1052D0000022BDE87040002311F0C8B9237B002BE9
:1052E000B6D02046FFF7DAFDB2E770BD000000201F
:1052F000A402002010B502460C460748012115F013
:105300002DFE034610B90023184610BD82781442C2
:10531000FAD1FFF735FFF6E7E8090020F8B50746B0
:1053200009480D46164615F0FDFD044650B1837838
:105330001F4203D1BDE8F840FFF722BF3146A8471E
:105340002046F7E7F8BD00BFE8090020034BC01A6C
:10535000034B00115843C0B2704700BFE80900205A
:10536000C54EECC470B51C46144305460E4608D025
:105370001CF042FA0A4908580A49884204BF002230
:1053800013460949002D14BF284608461AF0A5FE09
:10539000044618B1711D0C301AF004FF204670BD90
:1053A00008000000D0100020540700202DE9F04F25
:1053B00085B0002301930393FFF77CFE044668B198
:1053C000427BD0F8A430072A17D002AA4FF0FF3151
:1053D0009847014628B92046FFF7D2FE05B0BDE840
:1053E000F08F039B019A204615F01BFDD4F8A430E2
:1053F00002AA4FF0FF312046EAE7DFF8609102AAE7
:10540000B9F80411984705460028E4D0B9F80421FA
:10541000029B9A4206D30146D4F8A86003AB01AAC6
:105420002046B0472B8A039EDDE9018B002B00F05C
:105430008A80284614F0E0FE8246002840F08380EF
:10544000B9F804314648002B08BF00200022002391
:1054500010F0B4FE002876D142480022002310F05C
:1054600057FE074600286ED0C0E90186B9F80461EE
:105470002B8AB34598BF1FFA8BF6B34242D9284610
:105480001AF05EFE3146FFF74FFDB9F8043194F88B
:10549000C4809B458CBF4FF0010A08F1020884F8D4
:1054A000C4A0064698BF5FFA88F804F1C00ABFF3AB
:1054B0005B8F5AE8003F01334AE80032002AF8D1F6
:1054C000BFF35B8F04F1140B3946584615F074FC9A
:1054D000A378012B19D1042106F10C001AF084FEE7
:1054E000238808F0FD0843EA08330380338A043B2D
:1054F000438002233376304615F09AF828B9FEF738
:10550000A5FA68E731462846BDE7BFF35B8F5AE846
:10551000003F013B4AE80032002AF8D1BFF35B8F1D
:105520003946584615F052FC30460DF0ABFC20468B
:105530003946FFF7E3FCB9F804310948002B08BFEE
:10554000002010F017FE29462046039B019A15F013
:1055500068FC1321204615F02CFD3CE700000020DC
:10556000080100203C070020F8B5BFF35B8F4268BC
:10557000BFF35B8F9205044600F1040319D5B0F820
:105580008620B0F88810914213D8B0F88A10914262
:105590000FD3D0E9231291420BD1BFF35B8F53E8B5
:1055A000001F21F4007143E80012002AF7D1BFF375
:1055B0005B8F114B1D686DB155F80C6C1C3D3EB1F5
:1055C000B4F88E30B4F88C20B4F886102046B0477A
:1055D000ED69F0E7094D0A4FBD4200D3F8BD2E69D1
:1055E0003EB1B4F88E30B4F88C20B4F88610204662
:1055F000B0472035F0E700BFD01200202C1B02007E
:105600002C1B02002DE9F041074608460D4614F018
:1056100081FF064618B900263046BDE8F081144BDC
:105620001C6884B154F8103C1C3C0BB9E469F8E7E1
:105630002946384698470028EDD0284614F06AFFDE
:105640000028F3D1E7E70B4CDFF82C804445E3D288
:10565000E3680BB92034F9E7294638469847002813
:10566000D9D0284614F056FF0028F3D1D3E700BF65
:10567000D01200202C1B02002C1B02002DE9F0414F
:10568000C37804468BB900F17E06114B1D687DB1CD
:105690001C3D04F170076B691BB13A463146204648
:1056A0009847ED6925B11C3DF5E700F17706ECE779
:1056B000084D094F04F17008BD4201D3BDE8F081E7
:1056C0006B691BB142463146204698472035F3E7C7
:1056D000D01200202C1B02002C1B0200F8B5437ACC
:1056E00083720446164615F0DCFD144B1D684DB15F
:1056F00055F8043C1C3D1BB1617A32462046984760
:10570000ED69F4E70E4D0F4FBD420DD3A6B9637A94
:10571000012B11D9A378012B0ED1207A04F170014D
:10572000BDE8F84003F0F4B9AB691BB1617A3246C9
:10573000204698472035E7E7F8BD00BFD01200208B
:105740002C1B02002C1B020008B5084B1A6800F144
:105750001C0122B9054815F02FFB104608BD9142E7
:1057600001D01268F5E76FF01000F7E7D0120020C3
:1057700038B505460C460F480121FFF74BFCC0B178
:10578000057223680367A388A0F87430A37980F8B2
:1057900076300123437283728370074BC0F8A430C4
:1057A000064BC0F8A830064BC0F8AC30054BC0F82B
:1057B000883038BDE8090020A95A00000FAE01006A
:1057C00003AE01001800280070B505460A480E46D1
:1057D00015F0A8FB044620B18378012B04D0FFF715
:1057E000CFFC0024204670BD3246294615F04FFC00
:1057F0000028F7D12046F2E7E8090020F8B5054671
:105800000E480E46174615F08DFB044620B18378EE
:10581000012B03D0FFF7B4FC00240DE036B1324673
:10582000294615F034FC08B92046F3E7637BBB42F8
:10583000FAD1237AAB42F7D12046F8BDE80900201F
:1058400038B5044608460D4614F064FE48B3164BBE
:1058500093F8D830990707D4E37883B129462046D6
:10586000BDE8384000F086B994F895309A07F3D532
:10587000BFF35B8F6368BFF35B8F5B05ECD4294696
:10588000204615F02EFC58B92B88A4F888306B8878
:10589000A4F88A30AB88A4F89030EB88A4F8923052
:1058A00038BD6FF01500FBE700000020F7B510F8D9
:1058B000333C0446A0F140060BBB304615F0D9FC42
:1058C000354B1D684DB155F8183C1C3D1BB114F803
:1058D000341C30469847ED69F4E7304D304FBD42F7
:1058E00005D3304603B0BDE8F040FFF749BC6B6814
:1058F0001BB114F8341C304698472035EFE710F8F8
:105900003E3C012B30D1BFF35B8FA0F13C0555E845
:10591000003F23F4007245E800210029F7D1BFF3CE
:105920005B8F9B0522D5A36C00936946236D019381
:105930003046FFF785FF58B9BFF35B8F55E8003F4E
:1059400023F4807345E80032002AF7D1BFF35B8F60
:10595000BFF35B8F55E8003F43F0800345E800321A
:10596000002AF7D1BFF35B8F03B0F0BD0D4A10687A
:1059700051686B4603C369463046FFF761FF002854
:10598000E6D1BFF35B8F55E8003F43F4807345E8F1
:105990000032002ADAD0F6E7D01200202C1B0200D9
:1059A0002C1B0200B81B020010B50C481BF099F923
:1059B0000B490A481BF0C0F90A4908481BF0BCF91A
:1059C000094906481BF0B8F916F0B0F902F084FF57
:1059D000044608B915F012FD204610BD3C07002012
:1059E000AC120020B8120020C4120020044B18682A
:1059F00018B9044A5A600B6070476FF00B0070478B
:105A0000E412002048230200F7B5254D254F044637
:105A10000026BD4201D303B0F0BD6B6801A920464A
:105A20009847002837DB01982B888382838400F114
:105A30001003A968BFF35B8F53E8002F43E8006CA5
:105A4000BCF1000FF8D1BFF35B8F8660A26B00F151
:105A5000080312BBC4E90D330460C16030301BF091
:105A600040F9019843681B6803B19847019BBFF355
:105A70005B8F103353E8001F41F0010143E800122F
:105A8000002AF7D1BFF35B8F01984368DB6913B13C
:105A900000F1100198470C35BBE71360A363DBE707
:105AA000081B02002C1B02002DE9F843D0F8B0407F
:105AB0000E4690464CB1483C236B63B104F130096B
:105AC00048461BF04EF9054650B9FDF7BFFF0025CB
:105AD0002846BDE8F883204615F063FBA46CE9E78F
